{
  "_format": "hh-sol-artifact-1",
  "contractName": "HeirToken",
  "sourceName": "contracts/mock/HeirToken.sol",
  "abi": [
    {
      "inputs": [],
      "stateMutability": "nonpayable",
      "type": "constructor"
    },
    {
      "anonymous": false,
      "inputs": [
        {
          "indexed": true,
          "internalType": "address",
          "name": "owner",
          "type": "address"
        },
        {
          "indexed": true,
          "internalType": "address",
          "name": "approved",
          "type": "address"
        },
        {
          "indexed": true,
          "internalType": "uint256",
          "name": "tokenId",
          "type": "uint256"
        }
      ],
      "name": "Approval",
      "type": "event"
    },
    {
      "anonymous": false,
      "inputs": [
        {
          "indexed": true,
          "internalType": "address",
          "name": "owner",
          "type": "address"
        },
        {
          "indexed": true,
          "internalType": "address",
          "name": "operator",
          "type": "address"
        },
        {
          "indexed": false,
          "internalType": "bool",
          "name": "approved",
          "type": "bool"
        }
      ],
      "name": "ApprovalForAll",
      "type": "event"
    },
    {
      "anonymous": false,
      "inputs": [
        {
          "indexed": true,
          "internalType": "address",
          "name": "previousOwner",
          "type": "address"
        },
        {
          "indexed": true,
          "internalType": "address",
          "name": "newOwner",
          "type": "address"
        }
      ],
      "name": "OwnershipTransferred",
      "type": "event"
    },
    {
      "anonymous": false,
      "inputs": [
        {
          "indexed": true,
          "internalType": "address",
          "name": "from",
          "type": "address"
        },
        {
          "indexed": true,
          "internalType": "address",
          "name": "to",
          "type": "address"
        },
        {
          "indexed": true,
          "internalType": "uint256",
          "name": "tokenId",
          "type": "uint256"
        }
      ],
      "name": "Transfer",
      "type": "event"
    },
    {
      "inputs": [
        {
          "internalType": "address",
          "name": "to",
          "type": "address"
        },
        {
          "internalType": "uint256",
          "name": "tokenId",
          "type": "uint256"
        }
      ],
      "name": "approve",
      "outputs": [],
      "stateMutability": "nonpayable",
      "type": "function"
    },
    {
      "inputs": [
        {
          "internalType": "address",
          "name": "owner",
          "type": "address"
        }
      ],
      "name": "balanceOf",
      "outputs": [
        {
          "internalType": "uint256",
          "name": "",
          "type": "uint256"
        }
      ],
      "stateMutability": "view",
      "type": "function"
    },
    {
      "inputs": [
        {
          "internalType": "uint256",
          "name": "tokenId",
          "type": "uint256"
        }
      ],
      "name": "burn",
      "outputs": [],
      "stateMutability": "nonpayable",
      "type": "function"
    },
    {
      "inputs": [
        {
          "internalType": "uint256",
          "name": "tokenId",
          "type": "uint256"
        }
      ],
      "name": "getApproved",
      "outputs": [
        {
          "internalType": "address",
          "name": "",
          "type": "address"
        }
      ],
      "stateMutability": "view",
      "type": "function"
    },
    {
      "inputs": [
        {
          "internalType": "address",
          "name": "owner",
          "type": "address"
        },
        {
          "internalType": "address",
          "name": "operator",
          "type": "address"
        }
      ],
      "name": "isApprovedForAll",
      "outputs": [
        {
          "internalType": "bool",
          "name": "",
          "type": "bool"
        }
      ],
      "stateMutability": "view",
      "type": "function"
    },
    {
      "inputs": [
        {
          "internalType": "address",
          "name": "user",
          "type": "address"
        },
        {
          "internalType": "string",
          "name": "_tokenURI",
          "type": "string"
        }
      ],
      "name": "mint",
      "outputs": [
        {
          "internalType": "uint256",
          "name": "",
          "type": "uint256"
        }
      ],
      "stateMutability": "nonpayable",
      "type": "function"
    },
    {
      "inputs": [],
      "name": "name",
      "outputs": [
        {
          "internalType": "string",
          "name": "",
          "type": "string"
        }
      ],
      "stateMutability": "view",
      "type": "function"
    },
    {
      "inputs": [],
      "name": "owner",
      "outputs": [
        {
          "internalType": "address",
          "name": "",
          "type": "address"
        }
      ],
      "stateMutability": "view",
      "type": "function"
    },
    {
      "inputs": [
        {
          "internalType": "uint256",
          "name": "tokenId",
          "type": "uint256"
        }
      ],
      "name": "ownerOf",
      "outputs": [
        {
          "internalType": "address",
          "name": "",
          "type": "address"
        }
      ],
      "stateMutability": "view",
      "type": "function"
    },
    {
      "inputs": [],
      "name": "renounceOwnership",
      "outputs": [],
      "stateMutability": "nonpayable",
      "type": "function"
    },
    {
      "inputs": [
        {
          "internalType": "address",
          "name": "from",
          "type": "address"
        },
        {
          "internalType": "address",
          "name": "to",
          "type": "address"
        },
        {
          "internalType": "uint256",
          "name": "tokenId",
          "type": "uint256"
        }
      ],
      "name": "safeTransferFrom",
      "outputs": [],
      "stateMutability": "nonpayable",
      "type": "function"
    },
    {
      "inputs": [
        {
          "internalType": "address",
          "name": "from",
          "type": "address"
        },
        {
          "internalType": "address",
          "name": "to",
          "type": "address"
        },
        {
          "internalType": "uint256",
          "name": "tokenId",
          "type": "uint256"
        },
        {
          "internalType": "bytes",
          "name": "data",
          "type": "bytes"
        }
      ],
      "name": "safeTransferFrom",
      "outputs": [],
      "stateMutability": "nonpayable",
      "type": "function"
    },
    {
      "inputs": [
        {
          "internalType": "address",
          "name": "operator",
          "type": "address"
        },
        {
          "internalType": "bool",
          "name": "approved",
          "type": "bool"
        }
      ],
      "name": "setApprovalForAll",
      "outputs": [],
      "stateMutability": "nonpayable",
      "type": "function"
    },
    {
      "inputs": [
        {
          "internalType": "bytes4",
          "name": "interfaceId",
          "type": "bytes4"
        }
      ],
      "name": "supportsInterface",
      "outputs": [
        {
          "internalType": "bool",
          "name": "",
          "type": "bool"
        }
      ],
      "stateMutability": "view",
      "type": "function"
    },
    {
      "inputs": [],
      "name": "symbol",
      "outputs": [
        {
          "internalType": "string",
          "name": "",
          "type": "string"
        }
      ],
      "stateMutability": "view",
      "type": "function"
    },
    {
      "inputs": [
        {
          "internalType": "uint256",
          "name": "tokenId",
          "type": "uint256"
        }
      ],
      "name": "tokenURI",
      "outputs": [
        {
          "internalType": "string",
          "name": "",
          "type": "string"
        }
      ],
      "stateMutability": "view",
      "type": "function"
    },
    {
      "inputs": [
        {
          "internalType": "address",
          "name": "from",
          "type": "address"
        },
        {
          "internalType": "address",
          "name": "to",
          "type": "address"
        },
        {
          "internalType": "uint256",
          "name": "tokenId",
          "type": "uint256"
        }
      ],
      "name": "transferFrom",
      "outputs": [],
      "stateMutability": "nonpayable",
      "type": "function"
    },
    {
      "inputs": [
        {
          "internalType": "address",
          "name": "newOwner",
          "type": "address"
        }
      ],
      "name": "transferOwnership",
      "outputs": [],
      "stateMutability": "nonpayable",
      "type": "function"
    }
  ],
  "bytecode": "0x60806040523480156200001157600080fd5b50604051806040016040528060048152602001632432b4b960e11b815250604051806040016040528060048152602001632422a4a960e11b815250816000908051906020019062000064929190620000f3565b5080516200007a906001906020840190620000f3565b50505062000097620000916200009d60201b60201c565b620000a1565b620001d6565b3390565b600780546001600160a01b038381166001600160a01b0319831681179093556040519116919082907f8be0079c531659141344cd1fd0a4f28419497f9722a3daafe3b4186f6b6457e090600090a35050565b828054620001019062000199565b90600052602060002090601f01602090048101928262000125576000855562000170565b82601f106200014057805160ff191683800117855562000170565b8280016001018555821562000170579182015b828111156200017057825182559160200191906001019062000153565b506200017e92915062000182565b5090565b5b808211156200017e576000815560010162000183565b600181811c90821680620001ae57607f821691505b60208210811415620001d057634e487b7160e01b600052602260045260246000fd5b50919050565b61186e80620001e66000396000f3fe608060405234801561001057600080fd5b50600436106101165760003560e01c8063715018a6116100a2578063b88d4fde11610071578063b88d4fde14610239578063c87b56dd1461024c578063d0def5211461025f578063e985e9c514610272578063f2fde38b146102ae57600080fd5b8063715018a6146102055780638da5cb5b1461020d57806395d89b411461021e578063a22cb4651461022657600080fd5b806323b872dd116100e957806323b872dd1461019857806342842e0e146101ab57806342966c68146101be5780636352211e146101d157806370a08231146101e457600080fd5b806301ffc9a71461011b57806306fdde0314610143578063081812fc14610158578063095ea7b314610183575b600080fd5b61012e610129366004611553565b6102c1565b60405190151581526020015b60405180910390f35b61014b610313565b60405161013a919061163e565b61016b61016636600461158d565b6103a5565b6040516001600160a01b03909116815260200161013a565b610196610191366004611529565b6103cc565b005b6101966101a63660046113d3565b6104e7565b6101966101b93660046113d3565b610518565b6101966101cc36600461158d565b610533565b61016b6101df36600461158d565b61053f565b6101f76101f2366004611385565b61059f565b60405190815260200161013a565b610196610625565b6007546001600160a01b031661016b565b61014b610639565b61019661023436600461148b565b610648565b61019661024736600461140f565b610657565b61014b61025a36600461158d565b61068f565b6101f761026d3660046114c7565b6107a0565b61012e6102803660046113a0565b6001600160a01b03918216600090815260056020908152604080832093909416825291909152205460ff1690565b6101966102bc366004611385565b6107e0565b60006001600160e01b031982166380ac58cd60e01b14806102f257506001600160e01b03198216635b5e139f60e01b145b8061030d57506301ffc9a760e01b6001600160e01b03198316145b92915050565b60606000805461032290611760565b80601f016020809104026020016040519081016040528092919081815260200182805461034e90611760565b801561039b5780601f106103705761010080835404028352916020019161039b565b820191906000526020600020905b81548152906001019060200180831161037e57829003601f168201915b5050505050905090565b60006103b082610856565b506000908152600460205260409020546001600160a01b031690565b60006103d78261053f565b9050806001600160a01b0316836001600160a01b0316141561044a5760405162461bcd60e51b815260206004820152602160248201527f4552433732313a20617070726f76616c20746f2063757272656e74206f776e656044820152603960f91b60648201526084015b60405180910390fd5b336001600160a01b038216148061046657506104668133610280565b6104d85760405162461bcd60e51b815260206004820152603e60248201527f4552433732313a20617070726f76652063616c6c6572206973206e6f7420746f60448201527f6b656e206f776e6572206e6f7220617070726f76656420666f7220616c6c00006064820152608401610441565b6104e283836108b5565b505050565b6104f13382610923565b61050d5760405162461bcd60e51b8152600401610441906116a3565b6104e28383836109a1565b6104e283838360405180602001604052806000815250610657565b61053c81610b3d565b50565b6000818152600260205260408120546001600160a01b03168061030d5760405162461bcd60e51b8152602060048201526018602482015277115490cdcc8c4e881a5b9d985b1a59081d1bdad95b88125160421b6044820152606401610441565b60006001600160a01b0382166106095760405162461bcd60e51b815260206004820152602960248201527f4552433732313a2061646472657373207a65726f206973206e6f7420612076616044820152683634b21037bbb732b960b91b6064820152608401610441565b506001600160a01b031660009081526003602052604090205490565b61062d610b7d565b6106376000610bd7565b565b60606001805461032290611760565b610653338383610c29565b5050565b6106613383610923565b61067d5760405162461bcd60e51b8152600401610441906116a3565b61068984848484610cf8565b50505050565b606061069a82610856565b600082815260066020526040812080546106b390611760565b80601f01602080910402602001604051908101604052809291908181526020018280546106df90611760565b801561072c5780601f106107015761010080835404028352916020019161072c565b820191906000526020600020905b81548152906001019060200180831161070f57829003601f168201915b50505050509050600061074a60408051602081019091526000815290565b905080516000141561075d575092915050565b81511561078f5780826040516020016107779291906115d2565b60405160208183030381529060405292505050919050565b61079884610d2b565b949350505050565b60006107aa610b7d565b60006107b560085490565b90506107c18482610d9e565b6107cb8184610ee0565b6107d9600880546001019055565b9392505050565b6107e8610b7d565b6001600160a01b03811661084d5760405162461bcd60e51b815260206004820152602660248201527f4f776e61626c653a206e6577206f776e657220697320746865207a65726f206160448201526564647265737360d01b6064820152608401610441565b61053c81610bd7565b6000818152600260205260409020546001600160a01b031661053c5760405162461bcd60e51b8152602060048201526018602482015277115490cdcc8c4e881a5b9d985b1a59081d1bdad95b88125160421b6044820152606401610441565b600081815260046020526040902080546001600160a01b0319166001600160a01b03841690811790915581906108ea8261053f565b6001600160a01b03167f8c5be1e5ebec7d5bd14f71427d1e84f3dd0314c0f7b2291e5b200ac8c7c3b92560405160405180910390a45050565b60008061092f8361053f565b9050806001600160a01b0316846001600160a01b0316148061097657506001600160a01b0380821660009081526005602090815260408083209388168352929052205460ff165b806107985750836001600160a01b031661098f846103a5565b6001600160a01b031614949350505050565b826001600160a01b03166109b48261053f565b6001600160a01b031614610a185760405162461bcd60e51b815260206004820152602560248201527f4552433732313a207472616e736665722066726f6d20696e636f72726563742060448201526437bbb732b960d91b6064820152608401610441565b6001600160a01b038216610a7a5760405162461bcd60e51b8152602060048201526024808201527f4552433732313a207472616e7366657220746f20746865207a65726f206164646044820152637265737360e01b6064820152608401610441565b610a856000826108b5565b6001600160a01b0383166000908152600360205260408120805460019290610aae90849061171d565b90915550506001600160a01b0382166000908152600360205260408120805460019290610adc9084906116f1565b909155505060008181526002602052604080822080546001600160a01b0319166001600160a01b0386811691821790925591518493918716917fddf252ad1be2c89b69c2b068fc378daa952ba7f163c4a11628f55a4df523b3ef91a4505050565b610b4681610f7a565b60008181526006602052604090208054610b5f90611760565b15905061053c57600081815260066020526040812061053c91611220565b6007546001600160a01b031633146106375760405162461bcd60e51b815260206004820181905260248201527f4f776e61626c653a2063616c6c6572206973206e6f7420746865206f776e65726044820152606401610441565b600780546001600160a01b038381166001600160a01b0319831681179093556040519116919082907f8be0079c531659141344cd1fd0a4f28419497f9722a3daafe3b4186f6b6457e090600090a35050565b816001600160a01b0316836001600160a01b03161415610c8b5760405162461bcd60e51b815260206004820152601960248201527f4552433732313a20617070726f766520746f2063616c6c6572000000000000006044820152606401610441565b6001600160a01b03838116600081815260056020908152604080832094871680845294825291829020805460ff191686151590811790915591519182527f17307eab39ab6107e8899845ad3d59bd9653f200f220920489ca2b5937696c31910160405180910390a3505050565b610d038484846109a1565b610d0f84848484611015565b6106895760405162461bcd60e51b815260040161044190611651565b6060610d3682610856565b6000610d4d60408051602081019091526000815290565b90506000815111610d6d57604051806020016040528060008152506107d9565b80610d7784611122565b604051602001610d889291906115d2565b6040516020818303038152906040529392505050565b6001600160a01b038216610df45760405162461bcd60e51b815260206004820181905260248201527f4552433732313a206d696e7420746f20746865207a65726f20616464726573736044820152606401610441565b6000818152600260205260409020546001600160a01b031615610e595760405162461bcd60e51b815260206004820152601c60248201527f4552433732313a20746f6b656e20616c7265616479206d696e746564000000006044820152606401610441565b6001600160a01b0382166000908152600360205260408120805460019290610e829084906116f1565b909155505060008181526002602052604080822080546001600160a01b0319166001600160a01b03861690811790915590518392907fddf252ad1be2c89b69c2b068fc378daa952ba7f163c4a11628f55a4df523b3ef908290a45050565b6000828152600260205260409020546001600160a01b0316610f5b5760405162461bcd60e51b815260206004820152602e60248201527f45524337323155524953746f726167653a2055524920736574206f66206e6f6e60448201526d32bc34b9ba32b73a103a37b5b2b760911b6064820152608401610441565b600082815260066020908152604090912082516104e29284019061125a565b6000610f858261053f565b9050610f926000836108b5565b6001600160a01b0381166000908152600360205260408120805460019290610fbb90849061171d565b909155505060008281526002602052604080822080546001600160a01b0319169055518391906001600160a01b038416907fddf252ad1be2c89b69c2b068fc378daa952ba7f163c4a11628f55a4df523b3ef908390a45050565b60006001600160a01b0384163b1561111757604051630a85bd0160e11b81526001600160a01b0385169063150b7a0290611059903390899088908890600401611601565b602060405180830381600087803b15801561107357600080fd5b505af19250505080156110a3575060408051601f3d908101601f191682019092526110a091810190611570565b60015b6110fd573d8080156110d1576040519150601f19603f3d011682016040523d82523d6000602084013e6110d6565b606091505b5080516110f55760405162461bcd60e51b815260040161044190611651565b805181602001fd5b6001600160e01b031916630a85bd0160e11b149050610798565b506001949350505050565b6060816111465750506040805180820190915260018152600360fc1b602082015290565b8160005b8115611170578061115a8161179b565b91506111699050600a83611709565b915061114a565b60008167ffffffffffffffff81111561118b5761118b61180c565b6040519080825280601f01601f1916602001820160405280156111b5576020820181803683370190505b5090505b8415610798576111ca60018361171d565b91506111d7600a866117b6565b6111e29060306116f1565b60f81b8183815181106111f7576111f76117f6565b60200101906001600160f81b031916908160001a905350611219600a86611709565b94506111b9565b50805461122c90611760565b6000825580601f1061123c575050565b601f01602090049060005260206000209081019061053c91906112de565b82805461126690611760565b90600052602060002090601f01602090048101928261128857600085556112ce565b82601f106112a157805160ff19168380011785556112ce565b828001600101855582156112ce579182015b828111156112ce5782518255916020019190600101906112b3565b506112da9291506112de565b5090565b5b808211156112da57600081556001016112df565b600067ffffffffffffffff8084111561130e5761130e61180c565b604051601f8501601f19908116603f011681019082821181831017156113365761133661180c565b8160405280935085815286868601111561134f57600080fd5b858560208301376000602087830101525050509392505050565b80356001600160a01b038116811461138057600080fd5b919050565b60006020828403121561139757600080fd5b6107d982611369565b600080604083850312156113b357600080fd5b6113bc83611369565b91506113ca60208401611369565b90509250929050565b6000806000606084860312156113e857600080fd5b6113f184611369565b92506113ff60208501611369565b9150604084013590509250925092565b6000806000806080858703121561142557600080fd5b61142e85611369565b935061143c60208601611369565b925060408501359150606085013567ffffffffffffffff81111561145f57600080fd5b8501601f8101871361147057600080fd5b61147f878235602084016112f3565b91505092959194509250565b6000806040838503121561149e57600080fd5b6114a783611369565b9150602083013580151581146114bc57600080fd5b809150509250929050565b600080604083850312156114da57600080fd5b6114e383611369565b9150602083013567ffffffffffffffff8111156114ff57600080fd5b8301601f8101851361151057600080fd5b61151f858235602084016112f3565b9150509250929050565b6000806040838503121561153c57600080fd5b61154583611369565b946020939093013593505050565b60006020828403121561156557600080fd5b81356107d981611822565b60006020828403121561158257600080fd5b81516107d981611822565b60006020828403121561159f57600080fd5b5035919050565b600081518084526115be816020860160208601611734565b601f01601f19169290920160200192915050565b600083516115e4818460208801611734565b8351908301906115f8818360208801611734565b01949350505050565b6001600160a01b0385811682528416602082015260408101839052608060608201819052600090611634908301846115a6565b9695505050505050565b6020815260006107d960208301846115a6565b60208082526032908201527f4552433732313a207472616e7366657220746f206e6f6e20455243373231526560408201527131b2b4bb32b91034b6b83632b6b2b73a32b960711b606082015260800190565b6020808252602e908201527f4552433732313a2063616c6c6572206973206e6f7420746f6b656e206f776e6560408201526d1c881b9bdc88185c1c1c9bdd995960921b606082015260800190565b60008219821115611704576117046117ca565b500190565b600082611718576117186117e0565b500490565b60008282101561172f5761172f6117ca565b500390565b60005b8381101561174f578181015183820152602001611737565b838111156106895750506000910152565b600181811c9082168061177457607f821691505b6020821081141561179557634e487b7160e01b600052602260045260246000fd5b50919050565b60006000198214156117af576117af6117ca565b5060010190565b6000826117c5576117c56117e0565b500690565b634e487b7160e01b600052601160045260246000fd5b634e487b7160e01b600052601260045260246000fd5b634e487b7160e01b600052603260045260246000fd5b634e487b7160e01b600052604160045260246000fd5b6001600160e01b03198116811461053c57600080fdfea2646970667358221220ec081d61bd65d239650c28564dadbbc1f9b7d2b4ce9fb7a2217cf1a8e7ab032464736f6c63430008070033",
  "linkReferences": {},
  "deployedLinkReferences": {}
}