{
  "_format": "hh-sol-artifact-1",
  "contractName": "PecuniaLock",
  "sourceName": "contracts/PecuniaLock.sol",
  "abi": [
    {
      "inputs": [],
      "stateMutability": "nonpayable",
      "type": "constructor"
    },
    {
      "anonymous": false,
      "inputs": [
        {
          "indexed": true,
          "internalType": "address",
          "name": "owner",
          "type": "address"
        }
      ],
      "name": "BoxCanceled",
      "type": "event"
    },
    {
      "anonymous": false,
      "inputs": [
        {
          "indexed": false,
          "internalType": "uint256",
          "name": "amountAdded",
          "type": "uint256"
        },
        {
          "indexed": false,
          "internalType": "uint256",
          "name": "newBalance",
          "type": "uint256"
        },
        {
          "indexed": false,
          "internalType": "address",
          "name": "sender",
          "type": "address"
        }
      ],
      "name": "FundsAdded",
      "type": "event"
    },
    {
      "anonymous": false,
      "inputs": [
        {
          "indexed": false,
          "internalType": "uint256",
          "name": "amount",
          "type": "uint256"
        },
        {
          "indexed": false,
          "internalType": "address",
          "name": "heir",
          "type": "address"
        }
      ],
      "name": "FundsTransferred",
      "type": "event"
    },
    {
      "anonymous": false,
      "inputs": [
        {
          "indexed": true,
          "internalType": "address",
          "name": "sender",
          "type": "address"
        },
        {
          "indexed": true,
          "internalType": "address",
          "name": "heirAddress",
          "type": "address"
        },
        {
          "indexed": false,
          "internalType": "uint256",
          "name": "amount",
          "type": "uint256"
        }
      ],
      "name": "RechargeMatic",
      "type": "event"
    },
    {
      "anonymous": false,
      "inputs": [
        {
          "indexed": true,
          "internalType": "address",
          "name": "sender",
          "type": "address"
        },
        {
          "indexed": true,
          "internalType": "address",
          "name": "heirAddress",
          "type": "address"
        },
        {
          "indexed": false,
          "internalType": "address",
          "name": "nftAddress",
          "type": "address"
        }
      ],
      "name": "RechargeNft",
      "type": "event"
    },
    {
      "anonymous": false,
      "inputs": [
        {
          "indexed": true,
          "internalType": "bytes32",
          "name": "boxhash",
          "type": "bytes32"
        },
        {
          "indexed": true,
          "internalType": "address",
          "name": "owner",
          "type": "address"
        }
      ],
      "name": "Register",
      "type": "event"
    },
    {
      "anonymous": false,
      "inputs": [
        {
          "indexed": true,
          "internalType": "address",
          "name": "owner",
          "type": "address"
        },
        {
          "indexed": true,
          "internalType": "address",
          "name": "to",
          "type": "address"
        },
        {
          "indexed": false,
          "internalType": "uint256",
          "name": "amount",
          "type": "uint256"
        }
      ],
      "name": "WithdrawSigned",
      "type": "event"
    },
    {
      "inputs": [
        {
          "internalType": "bytes32",
          "name": "",
          "type": "bytes32"
        }
      ],
      "name": "boxhash2safebox",
      "outputs": [
        {
          "internalType": "bytes32",
          "name": "boxhash",
          "type": "bytes32"
        },
        {
          "internalType": "address",
          "name": "user",
          "type": "address"
        },
        {
          "internalType": "address",
          "name": "nftAddress",
          "type": "address"
        },
        {
          "internalType": "uint256",
          "name": "heirToInterval",
          "type": "uint256"
        },
        {
          "internalType": "uint256",
          "name": "lastTimeStamp",
          "type": "uint256"
        },
        {
          "internalType": "uint256",
          "name": "totalDeposit",
          "type": "uint256"
        }
      ],
      "stateMutability": "view",
      "type": "function"
    },
    {
      "inputs": [],
      "name": "cancelBoxAndTransferFundsToOwner",
      "outputs": [],
      "stateMutability": "nonpayable",
      "type": "function"
    },
    {
      "inputs": [
        {
          "internalType": "bytes",
          "name": "",
          "type": "bytes"
        }
      ],
      "name": "checkUpkeep",
      "outputs": [
        {
          "internalType": "bool",
          "name": "upkeepNeeded",
          "type": "bool"
        },
        {
          "internalType": "bytes",
          "name": "performData",
          "type": "bytes"
        }
      ],
      "stateMutability": "view",
      "type": "function"
    },
    {
      "inputs": [],
      "name": "gb",
      "outputs": [
        {
          "internalType": "uint256",
          "name": "",
          "type": "uint256"
        }
      ],
      "stateMutability": "view",
      "type": "function"
    },
    {
      "inputs": [],
      "name": "gb1",
      "outputs": [
        {
          "internalType": "uint256",
          "name": "",
          "type": "uint256"
        }
      ],
      "stateMutability": "view",
      "type": "function"
    },
    {
      "inputs": [],
      "name": "gb2",
      "outputs": [
        {
          "internalType": "uint256",
          "name": "",
          "type": "uint256"
        }
      ],
      "stateMutability": "view",
      "type": "function"
    },
    {
      "inputs": [
        {
          "internalType": "address",
          "name": "owner",
          "type": "address"
        },
        {
          "internalType": "address",
          "name": "heir",
          "type": "address"
        }
      ],
      "name": "getHeirAmountFromOwner",
      "outputs": [
        {
          "internalType": "uint256",
          "name": "",
          "type": "uint256"
        }
      ],
      "stateMutability": "view",
      "type": "function"
    },
    {
      "inputs": [
        {
          "internalType": "bytes32",
          "name": "boxhash",
          "type": "bytes32"
        },
        {
          "internalType": "address",
          "name": "heir",
          "type": "address"
        }
      ],
      "name": "getHeirAmountFromOwner",
      "outputs": [
        {
          "internalType": "uint256",
          "name": "",
          "type": "uint256"
        }
      ],
      "stateMutability": "view",
      "type": "function"
    },
    {
      "inputs": [
        {
          "internalType": "bytes32",
          "name": "boxhash",
          "type": "bytes32"
        },
        {
          "internalType": "address",
          "name": "heir",
          "type": "address"
        }
      ],
      "name": "getHeirWithdrawCounterFromBoxHash",
      "outputs": [
        {
          "internalType": "bool",
          "name": "",
          "type": "bool"
        }
      ],
      "stateMutability": "view",
      "type": "function"
    },
    {
      "inputs": [
        {
          "internalType": "address",
          "name": "owner",
          "type": "address"
        },
        {
          "internalType": "address",
          "name": "heir",
          "type": "address"
        }
      ],
      "name": "getHeirWithdrawCounterFromOwner",
      "outputs": [
        {
          "internalType": "bool",
          "name": "",
          "type": "bool"
        }
      ],
      "stateMutability": "view",
      "type": "function"
    },
    {
      "inputs": [],
      "name": "getMaturedBoxes",
      "outputs": [
        {
          "internalType": "bytes32[]",
          "name": "",
          "type": "bytes32[]"
        }
      ],
      "stateMutability": "view",
      "type": "function"
    },
    {
      "inputs": [
        {
          "internalType": "bytes32",
          "name": "boxhash",
          "type": "bytes32"
        }
      ],
      "name": "getSafeBoxDetailsFromBoxHash",
      "outputs": [
        {
          "internalType": "bytes32",
          "name": "",
          "type": "bytes32"
        },
        {
          "internalType": "uint256",
          "name": "",
          "type": "uint256"
        },
        {
          "internalType": "uint256",
          "name": "",
          "type": "uint256"
        }
      ],
      "stateMutability": "view",
      "type": "function"
    },
    {
      "inputs": [
        {
          "internalType": "address",
          "name": "owner",
          "type": "address"
        }
      ],
      "name": "getSafeBoxDetailsFromOwner",
      "outputs": [
        {
          "internalType": "bytes32",
          "name": "",
          "type": "bytes32"
        },
        {
          "internalType": "uint256",
          "name": "",
          "type": "uint256"
        },
        {
          "internalType": "uint256",
          "name": "",
          "type": "uint256"
        }
      ],
      "stateMutability": "view",
      "type": "function"
    },
    {
      "inputs": [
        {
          "internalType": "bytes32",
          "name": "boxhash",
          "type": "bytes32"
        }
      ],
      "name": "getSafeBoxHeirsFromBoxHash",
      "outputs": [
        {
          "internalType": "address[]",
          "name": "",
          "type": "address[]"
        }
      ],
      "stateMutability": "view",
      "type": "function"
    },
    {
      "inputs": [
        {
          "internalType": "address",
          "name": "owner",
          "type": "address"
        }
      ],
      "name": "getSafeBoxHeirsFromOwner",
      "outputs": [
        {
          "internalType": "address[]",
          "name": "",
          "type": "address[]"
        }
      ],
      "stateMutability": "view",
      "type": "function"
    },
    {
      "inputs": [
        {
          "internalType": "address",
          "name": "owner",
          "type": "address"
        }
      ],
      "name": "getTimeLeftFromOwner",
      "outputs": [
        {
          "internalType": "uint256",
          "name": "",
          "type": "uint256"
        }
      ],
      "stateMutability": "view",
      "type": "function"
    },
    {
      "inputs": [],
      "name": "heirToken",
      "outputs": [
        {
          "internalType": "contract HeirToken",
          "name": "",
          "type": "address"
        }
      ],
      "stateMutability": "view",
      "type": "function"
    },
    {
      "inputs": [
        {
          "internalType": "uint256",
          "name": "",
          "type": "uint256"
        }
      ],
      "name": "isHeirTokenValid",
      "outputs": [
        {
          "internalType": "bool",
          "name": "",
          "type": "bool"
        }
      ],
      "stateMutability": "view",
      "type": "function"
    },
    {
      "inputs": [
        {
          "internalType": "address",
          "name": "",
          "type": "address"
        },
        {
          "internalType": "address",
          "name": "",
          "type": "address"
        },
        {
          "internalType": "uint256",
          "name": "",
          "type": "uint256"
        },
        {
          "internalType": "bytes",
          "name": "",
          "type": "bytes"
        }
      ],
      "name": "onERC721Received",
      "outputs": [
        {
          "internalType": "bytes4",
          "name": "",
          "type": "bytes4"
        }
      ],
      "stateMutability": "nonpayable",
      "type": "function"
    },
    {
      "inputs": [
        {
          "internalType": "bytes",
          "name": "performData",
          "type": "bytes"
        }
      ],
      "name": "performUpkeep",
      "outputs": [],
      "stateMutability": "nonpayable",
      "type": "function"
    },
    {
      "inputs": [
        {
          "internalType": "address",
          "name": "boxOwner",
          "type": "address"
        },
        {
          "internalType": "address",
          "name": "heirAddr",
          "type": "address"
        },
        {
          "internalType": "address",
          "name": "nftAddr",
          "type": "address"
        },
        {
          "internalType": "uint256[]",
          "name": "nftTokenIds",
          "type": "uint256[]"
        }
      ],
      "name": "rechargeWithAddress",
      "outputs": [
        {
          "internalType": "uint256",
          "name": "tokenId",
          "type": "uint256"
        }
      ],
      "stateMutability": "payable",
      "type": "function"
    },
    {
      "inputs": [
        {
          "internalType": "bytes32",
          "name": "boxhash",
          "type": "bytes32"
        },
        {
          "internalType": "uint256[8]",
          "name": "proof",
          "type": "uint256[8]"
        },
        {
          "internalType": "uint256",
          "name": "pswHash",
          "type": "uint256"
        },
        {
          "internalType": "uint256",
          "name": "allHash",
          "type": "uint256"
        },
        {
          "internalType": "uint256",
          "name": "interval",
          "type": "uint256"
        }
      ],
      "name": "register",
      "outputs": [],
      "stateMutability": "nonpayable",
      "type": "function"
    },
    {
      "inputs": [
        {
          "internalType": "uint256",
          "name": "",
          "type": "uint256"
        }
      ],
      "name": "usedProof",
      "outputs": [
        {
          "internalType": "bool",
          "name": "",
          "type": "bool"
        }
      ],
      "stateMutability": "view",
      "type": "function"
    },
    {
      "inputs": [
        {
          "internalType": "address",
          "name": "",
          "type": "address"
        }
      ],
      "name": "user2boxhash",
      "outputs": [
        {
          "internalType": "bytes32",
          "name": "",
          "type": "bytes32"
        }
      ],
      "stateMutability": "view",
      "type": "function"
    },
    {
      "inputs": [
        {
          "internalType": "uint256[8]",
          "name": "proof",
          "type": "uint256[8]"
        },
        {
          "internalType": "uint256",
          "name": "pswHash",
          "type": "uint256"
        },
        {
          "internalType": "uint256",
          "name": "allHash",
          "type": "uint256"
        },
        {
          "internalType": "address",
          "name": "boxOwner",
          "type": "address"
        }
      ],
      "name": "withdrawSignature",
      "outputs": [],
      "stateMutability": "nonpayable",
      "type": "function"
    },
    {
      "stateMutability": "payable",
      "type": "receive"
    }
  ],
  "bytecode": "0x60806040523480156200001157600080fd5b50604051620000209062000154565b604051809103906000f0801580156200003d573d6000803e3d6000fd5b50600380546001600160a01b0319166001600160a01b03929092169190911790556040516200006c9062000162565b604051809103906000f08015801562000089573d6000803e3d6000fd5b50600480546001600160a01b0319166001600160a01b039290921691821781556040805163d0def52160e01b815230928101929092526024820152600d60448201526c23b2b732b9b4b9902a37b5b2b760991b606482015263d0def52190608401602060405180830381600087803b1580156200010557600080fd5b505af11580156200011a573d6000803e3d6000fd5b505050506040513d601f19601f8201168201806040525081019062000140919062000170565b50600080805560018190556002556200018a565b6112b680620036d983390190565b611a54806200498f83390190565b6000602082840312156200018357600080fd5b5051919050565b61353f806200019a6000396000f3fe6080604052600436106101695760003560e01c806373f7ea88116100d1578063a9a90fb51161008a578063c9eabb3111610064578063c9eabb3114610640578063d47b8ff714610653578063e4d3f5c314610669578063f1b852f6146106af57600080fd5b8063a9a90fb5146105c6578063b61afe56146105e8578063b8df0f421461062057600080fd5b806373f7ea88146104605780637e6fa39e146104b557806387ccdf77146104e557806391519dec146104fb578063a063a2531461051b578063a8cdbcef1461053057600080fd5b806329d644dd1161012357806329d644dd1461037f5780633601f527146103a35780634585e33b146103c357806366ccf7ea146103e5578063691936aa146104055780636e04ff0d1461043257600080fd5b80626fe815146101b3578063150b7a02146102125780631767ea0f146102565780631b080073146102ab57806323eca84114610302578063280a07881461032f57600080fd5b366101ae5760408051348152476020820152338183015290517fc6f3fb0fec49e4877342d4625d77a632541f55b7aae0f9d0b34c69b3478706dc9181900360600190a1005b600080fd5b3480156101bf57600080fd5b506101fd6101ce366004613083565b60008281526007602090815260408083206001600160a01b038516845260090190915290205460ff1692915050565b60405190151581526020015b60405180910390f35b34801561021e57600080fd5b5061023d61022d366004612e9f565b630a85bd0160e11b949350505050565b6040516001600160e01b03199091168152602001610209565b34801561026257600080fd5b5061029061027136600461306a565b6000908152600760205260409020805460038201546004909201549092565b60408051938452602084019290925290820152606001610209565b3480156102b757600080fd5b506101fd6102c6366004612d91565b6001600160a01b039182166000908152600860209081526040808320548352600782528083209390941682526009909201909152205460ff1690565b34801561030e57600080fd5b5061032261031d36600461306a565b6106df565b60405161020991906131ef565b34801561033b57600080fd5b5061029061034a366004612d50565b6001600160a01b0316600090815260086020908152604080832054835260079091529020805460038201546004909201549092565b34801561038b57600080fd5b5061039560015481565b604051908152602001610209565b3480156103af57600080fd5b506103956103be366004612d50565b61074e565b3480156103cf57600080fd5b506103e36103de3660046130f3565b610787565b005b3480156103f157600080fd5b506103e36104003660046130a8565b6107b6565b34801561041157600080fd5b50610395610420366004612d50565b60086020526000908152604090205481565b34801561043e57600080fd5b5061045261044d3660046130f3565b610bb0565b6040516102099291906132f8565b34801561046c57600080fd5b5061039561047b366004612d91565b6001600160a01b03808316600090815260086020908152604080832054835260078083528184209486168452939093019052205492915050565b3480156104c157600080fd5b506101fd6104d036600461306a565b600a6020526000908152604090205460ff1681565b3480156104f157600080fd5b5061039560025481565b34801561050757600080fd5b506103e3610516366004612ffb565b610bf1565b34801561052757600080fd5b506103e361133c565b34801561053c57600080fd5b5061058d61054b36600461306a565b60076020526000908152604090208054600182015460028301546003840154600485015460059095015493946001600160a01b03938416949290931692909186565b604080519687526001600160a01b03958616602088015293909416928501929092526060840152608083015260a082015260c001610209565b3480156105d257600080fd5b506105db6117f8565b604051610209919061323c565b3480156105f457600080fd5b50600454610608906001600160a01b031681565b6040516001600160a01b039091168152602001610209565b34801561062c57600080fd5b5061032261063b366004612d50565b6119bc565b61039561064e366004612dca565b611a3d565b34801561065f57600080fd5b5061039560005481565b34801561067557600080fd5b50610395610684366004613083565b60008281526007602081815260408084206001600160a01b0386168552909201905290205492915050565b3480156106bb57600080fd5b506101fd6106ca36600461306a565b60096020526000908152604090205460ff1681565b60008181526007602090815260409182902060060180548351818402810184019094528084526060939283018282801561074257602002820191906000526020600020905b81546001600160a01b03168152600190910190602001808311610724575b50505050509050919050565b6001600160a01b0381166000908152600860209081526040808320548352600790915281206004015461078190426133f0565b92915050565b6000546107959060016133d8565b60009081556107a682840184612f63565b90506107b181611bab565b505050565b6000858152600760209081526040808320338452600890925290912054156108395760405162461bcd60e51b815260206004820152602b60248201527f506563756e69614c6f636b3a3a72656769737465723a206f6e6520757365722060448201526a0dedcca40e6c2cccac4def60ab1b60648201526084015b60405180910390fd5b8054156108a35760405162461bcd60e51b815260206004820152603260248201527f506563756e69614c6f636b3a3a72656769737465723a20626f78686173682068604482015271185cc81899595b881c9959da5cdd195c995960721b6064820152608401610830565b8584336040516020016108d292919091825260601b6bffffffffffffffffffffffff1916602082015260340190565b60405160208183030381529060405280519060200120146109415760405162461bcd60e51b8152602060048201526024808201527f506563756e69614c6f636b3a3a72656769737465723a20626f78686173682065604482015263393937b960e11b6064820152608401610830565b60035460408051808201825287518152602080890151818301528251608080820185528a8501518286019081526060808d01518185015290835285518087018752918c0151825260a08c015182850152828401919091528451808601865260c08c0151815260e08c015181850152855191820186528a825260009382019390935280850189905293516308a3cff560e11b81526001600160a01b03909516946311479fea946109f4949391600401613274565b60206040518083038186803b158015610a0c57600080fd5b505afa158015610a20573d6000803e3d6000fd5b505050506040513d601f19601f82011682018060405250810190610a449190613048565b610aa05760405162461bcd60e51b815260206004820152602760248201527f506563756e69614c6f636b3a3a72656769737465723a2076657269667950726f6044820152661bd98819985a5b60ca1b6064820152608401610830565b60008211610b075760405162461bcd60e51b815260206004820152602e60248201527f506563756e69614c6f636b3a3a72656769737465723a20696e74657276616c2060448201526d63616e6e6f74206265207a65726f60901b6064820152608401610830565b858155600180820180546001600160a01b031916339081178255600384018590554260048501556000908152600860205260408082208a905560058054948501815582527f036b6384b5eca791c62761152d0c79bb0604c104a5fb6f4eb0703f3154bb3db0909301899055905491516001600160a01b03929092169188917f1082cda15f9606da555bb7e9bf4eeee2f8e34abe85d3924bf9bacb716f8feca691a3505050505050565b600060606000610bbe6117f8565b90506000815111925080604051602001610bd8919061323c565b6040516020818303038152906040529150509250929050565b336001600160a01b038216811415610c5f5760405162461bcd60e51b815260206004820152603c60248201526000805160206134ea83398151915260448201527f4f776e65722063616e6e6f7420776974686472617720616d6f756e74000000006064820152608401610830565b845160009081526009602052604090205460ff1615610cc15760405162461bcd60e51b815260206004820152602a60248201526000805160206134ea8339815191526044820152691c1c9bdbd9881d5cd95960b21b6064820152608401610830565b6001600160a01b0382166000908152600860209081526040918290205491518291610d0b91889187910191825260601b6bffffffffffffffffffffffff1916602082015260340190565b6040516020818303038152906040528051906020012014610d725760405162461bcd60e51b815260206004820152602d60248201526000805160206134ea83398151915260448201526c3839bba430b9b41032b93937b960991b6064820152608401610830565b60008181526007602052604090208054610de25760405162461bcd60e51b815260206004820152603860248201526000805160206134ea83398151915260448201527f73616665626f78206e6f742072656769737465722079657400000000000000006064820152608401610830565b6001600160a01b0383166000908152600882016020526040902054610e4e5760405162461bcd60e51b815260206004820152602e60248201526000805160206134ea83398151915260448201526d12195a5c881b9bdd081d985b1a5960921b6064820152608401610830565b6001600160a01b0383166000908152600b8201602052604090205460ff16610ee65760405162461bcd60e51b815260206004820152605160248201526000805160206134ea83398151915260448201527f486569722068617320616c72656164792074616b656e20616d6f756e74206f72606482015270081dda5b1b081a5cc818d85b98d95b1959607a1b608482015260a401610830565b6000816007016000856001600160a01b03166001600160a01b03168152602001908152602001600020549050610f446040518060400160405280601081526020016f30b6b7bab73a103bb4ba34323930bbb760811b81525082612390565b6003546040805180820182528a5181526020808c01518183015282516080810184528c8401518185019081526060808f015190830152815283518085019094526001600160a01b03909416936311479fea939091820190808e6004602002015181526020018e600560088110610fbc57610fbc613464565b60200201519052905260408051808201909152808d6006602002015181526020018d600760088110610ff057610ff0613464565b602002015181525060405180606001604052808d81526020018781526020018c8152506040518563ffffffff1660e01b81526004016110329493929190613274565b60206040518083038186803b15801561104a57600080fd5b505afa15801561105e573d6000803e3d6000fd5b505050506040513d601f19601f820116820180604052508101906110829190613048565b6110de5760405162461bcd60e51b815260206004820152602760248201527f506563756e69614c6f636b3a3a77697468647261773a2076657269667950726f6044820152661bd98819985a5b60ca1b6064820152608401610830565b6001600160a01b0384166000908152600883016020526040902054806111565760405162461bcd60e51b815260206004820152602760248201527f506563756e69614c6f636b3a3a77697468647261773a20746f6b656e206964206044820152661a5b9d985b1a5960ca1b6064820152608401610830565b6004805460405163020604bf60e21b815291820183905230916001600160a01b039091169063081812fc9060240160206040518083038186803b15801561119c57600080fd5b505afa1580156111b0573d6000803e3d6000fd5b505050506040513d601f19601f820116820180604052508101906111d49190612d74565b6001600160a01b03161461122a5760405162461bcd60e51b815260206004820181905260248201527f417070726f76616c20666f72204e465420546f6b656e206e6f7420676976656e6044820152606401610830565b60048054604051630852cd8d60e31b81529182018390526001600160a01b0316906342966c6890602401600060405180830381600087803b15801561126e57600080fd5b505af1158015611282573d6000803e3d6000fd5b505050506001600960008b60006008811061129f5761129f613464565b6020908102919091015182528181019290925260409081016000908120805494151560ff199586161790556001600160a01b03808a16808352600989019094529082902080549094166001908117909455928601549051919216907f2886d3a939fdefc4ab38e6b3413f0240ecd7a2f0b87072a44f0a177efaedd483906113299086815260200190565b60405180910390a3505050505050505050565b33600081815260086020526040902054806113cf5760405162461bcd60e51b815260206004820152604760248201527f506563756e69614c6f636b3a3a63616e63656c426f78416e645472616e73666560448201527f7246756e6473546f4f776e65723a2073616665626f78206e6f742072656769736064820152661d195c881e595d60ca1b608482015260a401610830565b600081815260076020526040902060018101546001600160a01b031633146114715760405162461bcd60e51b815260206004820152604960248201527f506563756e69614c6f636b3a3a63616e63656c426f78416e645472616e73666560448201527f7246756e6473546f4f776e65723a206f6e6c79206f776e65722063616e2063616064820152686e63656c207468697360b81b608482015260a401610830565b6000816006018054806020026020016040519081016040528092919081815260200182805480156114cb57602002820191906000526020600020905b81546001600160a01b031681526001909101906020018083116114ad575b5050505060058401549192505080156114ef57600060058401556114ef85826123d9565b60005b82518110156117665783600b01600084838151811061151357611513613464565b6020908102919091018101516001600160a01b031682528101919091526040016000205460ff161561175457600084600a01600085848151811061155957611559613464565b60200260200101516001600160a01b03166001600160a01b031681526020019081526020016000208054905011156116fa5760005b84600a0160008584815181106115a6576115a6613464565b60200260200101516001600160a01b03166001600160a01b03168152602001908152602001600020805490508110156116f8578460020160009054906101000a90046001600160a01b03166001600160a01b03166342842e0e308988600a01600089888151811061161957611619613464565b60200260200101516001600160a01b03166001600160a01b03168152602001908152602001600020858154811061165257611652613464565b6000918252602090912001546040516001600160e01b031960e086901b1681526001600160a01b0393841660048201529290911660248301526044820152606401600060405180830381600087803b1580156116ad57600080fd5b505af11580156116c1573d6000803e3d6000fd5b505050506116e66040518060600160405280602481526020016134c660249139612579565b806116f081613433565b91505061158e565b505b600084600b01600085848151811061171457611714613464565b60200260200101516001600160a01b03166001600160a01b0316815260200190815260200160002060006101000a81548160ff0219169083151502179055505b8061175e81613433565b9150506114f2565b5060008481526007602052604081208181556001810180546001600160a01b03199081169091556002820180549091169055600381018290556004810182905560058101829055906117bb6006830182612ca4565b50506040516001600160a01b038616907f1c51c371c225c7cc89cebcc2ac4d4b519f8d67182fe88b8f38032a02259ddf7f90600090a25050505050565b60055460609060009067ffffffffffffffff8111156118195761181961347a565b604051908082528060200260200182016040528015611842578160200160208202803683370190505b5090506000805b6005548110156119a85760006005828154811061186857611868613464565b600091825260208083209091015480835260079091526040822090925090805b600683015481101561199157600383015460048401546118a890426133f0565b101580156118f5575082600b0160008460060183815481106118cc576118cc613464565b60009182526020808320909101546001600160a01b0316835282019290925260400190205460ff165b8015611940575082600901600084600601838154811061191757611917613464565b60009182526020808320909101546001600160a01b0316835282019290925260400190205460ff165b801561194a575081155b1561197f578387878151811061196257611962613464565b60209081029190910101528561197781613433565b965050600191505b8061198981613433565b915050611888565b5050505080806119a090613433565b915050611849565b5060055481146119b6578082525b50919050565b6001600160a01b03811660009081526008602090815260408083205483526007825291829020600601805483518184028101840190945280845260609392830182828015610742576020028201919060005260206000209081546001600160a01b031681526001909101906020018083116107245750505050509050919050565b6000336001600160a01b03861614611aba5760405162461bcd60e51b815260206004820152604660248201526000805160206134a683398151915260448201527f3a206f6e6c79206f776e65722063616e2061737369676e2066756e647320746f60648201526520686569727360d01b608482015260a401610830565b6001600160a01b038416611b245760405162461bcd60e51b815260206004820152603a60248201526000805160206134a683398151915260448201527f3a20486569722063616e6e6f74206265203020616464726573730000000000006064820152608401610830565b836001600160a01b0316856001600160a01b03161415611b935760405162461bcd60e51b815260206004820152603660248201526000805160206134a68339815191526044820152751d1027bbb732b91031b0b73737ba103132903432b4b960511b6064820152608401610830565b34611ba186868387876125bf565b9695505050505050565b60018054611bb8916133d8565b60015560005b815181101561237b57600060076000848481518110611bdf57611bdf613464565b60200260200101518152602001908152602001600020600601805480602002602001604051908101604052809291908181526020018280548015611c4c57602002820191906000526020600020905b81546001600160a01b03168152600190910190602001808311611c2e575b5050505050905060005b81518110156123665760076000858581518110611c7557611c75613464565b602002602001015181526020019081526020016000206009016000838381518110611ca257611ca2613464565b6020908102919091018101516001600160a01b031682528101919091526040016000205460ff168015611d3e575060076000858581518110611ce657611ce6613464565b602002602001015181526020019081526020016000206003015460076000868681518110611d1657611d16613464565b602002602001015181526020019081526020016000206004015442611d3b91906133f0565b10155b8015611db0575060076000858581518110611d5b57611d5b613464565b60200260200101518152602001908152602001600020600b016000838381518110611d8857611d88613464565b6020908102919091018101516001600160a01b031682528101919091526040016000205460ff165b1561234357600060076000868681518110611dcd57611dcd613464565b602002602001015181526020019081526020016000206007016000848481518110611dfa57611dfa613464565b60200260200101516001600160a01b03166001600160a01b031681526020019081526020016000205490506000811115611fce57611e796040518060400160405280600f81526020016e3830bcb4b7339030b6ba16103a379d60891b81525082858581518110611e6c57611e6c613464565b6020026020010151612928565b6000838381518110611e8d57611e8d613464565b60200260200101516001600160a01b03166108fc839081150290604051600060405180830381858888f1935050505090508015611fcc57600060076000888881518110611edc57611edc613464565b602002602001015181526020019081526020016000206007016000868681518110611f0957611f09613464565b60200260200101516001600160a01b03166001600160a01b0316815260200190815260200160002081905550611f6760405180604001604052806011815260200170119d5b991cc8151c985b9cd9995c9c9959607a1b815250612579565b7fd0107046e9d9bb8140de7842695f5146ef44c52ca4577f579f8c5cba381f13ca82858581518110611f9b57611f9b613464565b6020026020010151604051611fc39291909182526001600160a01b0316602082015260400190565b60405180910390a15b505b60006001600160a01b031660076000878781518110611fef57611fef613464565b6020908102919091018101518252810191909152604001600020600201546001600160a01b0316146122395760005b6007600087878151811061203457612034613464565b60200260200101518152602001908152602001600020600a01600085858151811061206157612061613464565b60200260200101516001600160a01b03166001600160a01b031681526020019081526020016000208054905081101561223757600760008787815181106120aa576120aa613464565b6020026020010151815260200190815260200160002060020160009054906101000a90046001600160a01b03166001600160a01b03166342842e0e308686815181106120f8576120f8613464565b6020026020010151600760008b8b8151811061211657612116613464565b60200260200101518152602001908152602001600020600a01600089898151811061214357612143613464565b60200260200101516001600160a01b03166001600160a01b03168152602001908152602001600020858154811061217c5761217c613464565b6000918252602090912001546040516001600160e01b031960e086901b1681526001600160a01b0393841660048201529290911660248301526044820152606401600060405180830381600087803b1580156121d757600080fd5b505af11580156121eb573d6000803e3d6000fd5b505050506122256040518060400160405280601581526020017413dddb995c88139195081d1c985b9cd999995c9959605a1b815250612579565b8061222f81613433565b91505061201e565b505b60006007600087878151811061225157612251613464565b60200260200101518152602001908152602001600020600b01600085858151811061227e5761227e613464565b60200260200101516001600160a01b03166001600160a01b0316815260200190815260200160002060006101000a81548160ff0219169083151502179055506000600760008787815181106122d5576122d5613464565b60200260200101518152602001908152602001600020600901600085858151811061230257612302613464565b60200260200101516001600160a01b03166001600160a01b0316815260200190815260200160002060006101000a81548160ff021916908315150217905550505b620186a05a10156123545750505050565b8061235e81613433565b915050611c56565b5050808061237390613433565b915050611bbe565b5060025461238a9060016133d8565b60025550565b6123d582826040516024016123a692919061332e565b60408051601f198184030181529190526020810180516001600160e01b03166309710a9d60e41b17905261296b565b5050565b804710156124435760405162461bcd60e51b815260206004820152603160248201527f506563756e69614c6f636b3a3a736166655472616e736665724554483a20496e6044820152701cdd59999a58da595b9d08185b5bdd5b9d607a1b6064820152608401610830565b60065460ff16156124835760405162461bcd60e51b815260206004820152600a60248201526952652d456e747261637960b01b6044820152606401610830565b6006805460ff19166001179055604080516000808252602082019092526001600160a01b0384169083906040516124ba91906131d3565b60006040518083038185875af1925050503d80600081146124f7576040519150601f19603f3d011682016040523d82523d6000602084013e6124fc565b606091505b505090508061256a5760405162461bcd60e51b815260206004820152603460248201527f5472616e7366657248656c7065723a3a736166655472616e736665724554483a60448201527308115512081d1c985b9cd9995c8819985a5b195960621b6064820152608401610830565b50506006805460ff1916905550565b6125bc8160405160240161258d919061331b565b60408051601f198184030181529190526020810180516001600160e01b031663104c13eb60e21b17905261296b565b50565b6001600160a01b038516600090815260086020526040812054806126395760405162461bcd60e51b815260206004820152603a60248201526000805160206134a683398151915260448201527f3a2073616665626f78206e6f74207265676973746572207965740000000000006064820152608401610830565b60008181526007602090815260408083206001600160a01b038a168452600b81019092529091205460ff16156126cf5760405162461bcd60e51b815260206004820152604160248201526000805160206134a683398151915260448201527f3a20416d6f756e7420616c72656164792061737369676e656420746f206865696064820152603960f91b608482015260a401610830565b60008611806126ef57506001600160a01b038516158015906126ef575060015b61275d5760405162461bcd60e51b815260206004820152604560248201526000805160206134a683398151915260448201527f3a20426f746820616d6f756e7420616e64204e46542063616e6e6f7420626520606482015264656d70747960d81b608482015260a401610830565b85156127a25761276f8883898961298c565b6127a260405180604001604052806011815260200170616d6f756e74206465706f73697465643d60781b81525087612390565b6001600160a01b038516158015906127b8575060015b156128295760028101546001600160a01b03166127ed576002810180546001600160a01b0319166001600160a01b0387161790555b6127fa8883898888612a38565b6128296040518060400160405280600e81526020016d1391951cc819195c1bdcda5d195960921b815250612579565b6001600160a01b038781166000818152600b84016020526040808220805460ff1916600117905560048054825163d0def52160e01b8152918201949094526024810191909152604481019190915291169063d0def52190606401602060405180830381600087803b15801561289d57600080fd5b505af11580156128b1573d6000803e3d6000fd5b505050506040513d601f19601f820116820180604052508101906128d59190613165565b6001600160a01b0388166000818152600884016020908152604082208490556006909401805460018101825590825293902090920180546001600160a01b03191690921790915591505095945050505050565b6107b183838360405160240161294093929190613350565b60408051601f198184030181529190526020810180516001600160e01b031663e3849f7960e01b1790525b80516a636f6e736f6c652e6c6f67602083016000808483855afa5050505050565b60008381526007602081815260408084206001600160a01b038716855292830190915282208054919284926129c29084906133d8565b92505081905550818160050160008282546129dd91906133d8565b92505081905550826001600160a01b0316856001600160a01b03167f8f6656c43e8d5d6f44d70129ab4b94c5d5d9502c924bc5de7838cc5181911b1284604051612a2991815260200190565b60405180910390a35050505050565b6000848152600760205260408120905b8251811015612c5657306001600160a01b0316846001600160a01b031663081812fc858481518110612a7c57612a7c613464565b60200260200101516040518263ffffffff1660e01b8152600401612aa291815260200190565b60206040518083038186803b158015612aba57600080fd5b505afa158015612ace573d6000803e3d6000fd5b505050506040513d601f19601f82011682018060405250810190612af29190612d74565b6001600160a01b031614612b625760405162461bcd60e51b815260206004820152603160248201527f506563756e69614c6f636b3a3a5f72656368617267654f664e66743a204e465460448201527008185c1c1c9bdd985b081b9bdd081cd95d607a1b6064820152608401610830565b836001600160a01b03166342842e0e8830868581518110612b8557612b85613464565b60209081029190910101516040516001600160e01b031960e086901b1681526001600160a01b0393841660048201529290911660248301526044820152606401600060405180830381600087803b158015612bdf57600080fd5b505af1158015612bf3573d6000803e3d6000fd5b505050506001600160a01b0385166000908152600a8301602052604090208351849083908110612c2557612c25613464565b6020908102919091018101518254600181018455600093845291909220015580612c4e81613433565b915050612a48565b506040516001600160a01b03848116825280861691908816907f99c28593372d33b0a81876848bd002f9e2e4ec27e23cb79bdb3946e534e9f1f49060200160405180910390a3505050505050565b50805460008255906000526020600020908101906125bc91905b80821115612cd25760008155600101612cbe565b5090565b600082601f830112612ce757600080fd5b60405161010080820182811067ffffffffffffffff82111715612d0c57612d0c61347a565b6040528184828101871015612d2057600080fd5b600092505b6008831015612d4557803582526001929092019160209182019101612d25565b509195945050505050565b600060208284031215612d6257600080fd5b8135612d6d81613490565b9392505050565b600060208284031215612d8657600080fd5b8151612d6d81613490565b60008060408385031215612da457600080fd5b8235612daf81613490565b91506020830135612dbf81613490565b809150509250929050565b60008060008060808587031215612de057600080fd5b8435612deb81613490565b9350602085810135612dfc81613490565b93506040860135612e0c81613490565b9250606086013567ffffffffffffffff811115612e2857600080fd5b8601601f81018813612e3957600080fd5b8035612e4c612e47826133b4565b613383565b8082825284820191508484018b868560051b8701011115612e6c57600080fd5b600094505b83851015612e8f578035835260019490940193918501918501612e71565b50979a9699509497505050505050565b60008060008060808587031215612eb557600080fd5b8435612ec081613490565b9350602085810135612ed181613490565b935060408601359250606086013567ffffffffffffffff80821115612ef557600080fd5b818801915088601f830112612f0957600080fd5b813581811115612f1b57612f1b61347a565b612f2d601f8201601f19168501613383565b91508082528984828501011115612f4357600080fd5b808484018584013760008482840101525080935050505092959194509250565b60006020808385031215612f7657600080fd5b823567ffffffffffffffff811115612f8d57600080fd5b8301601f81018513612f9e57600080fd5b8035612fac612e47826133b4565b80828252848201915084840188868560051b8701011115612fcc57600080fd5b600094505b83851015612fef578035835260019490940193918501918501612fd1565b50979650505050505050565b600080600080610160858703121561301257600080fd5b61301c8686612cd6565b93506101008501359250610120850135915061014085013561303d81613490565b939692955090935050565b60006020828403121561305a57600080fd5b81518015158114612d6d57600080fd5b60006020828403121561307c57600080fd5b5035919050565b6000806040838503121561309657600080fd5b823591506020830135612dbf81613490565b600080600080600061018086880312156130c157600080fd5b853594506130d28760208801612cd6565b94979496505050506101208301359261014081013592610160909101359150565b6000806020838503121561310657600080fd5b823567ffffffffffffffff8082111561311e57600080fd5b818501915085601f83011261313257600080fd5b81358181111561314157600080fd5b86602082850101111561315357600080fd5b60209290920196919550909350505050565b60006020828403121561317757600080fd5b5051919050565b8060005b60028110156131a1578151845260209384019390910190600101613182565b50505050565b600081518084526131bf816020860160208601613407565b601f01601f19169290920160200192915050565b600082516131e5818460208701613407565b9190910192915050565b6020808252825182820181905260009190848201906040850190845b818110156132305783516001600160a01b03168352928401929184019160010161320b565b50909695505050505050565b6020808252825182820181905260009190848201906040850190845b8181101561323057835183529284019291840191600101613258565b6101608101613283828761317e565b60408083018660005b60028110156132b3576132a083835161317e565b918301916020919091019060010161328c565b505050506132c460c083018561317e565b61010082018360005b60038110156132ec5781518352602092830192909101906001016132cd565b50505095945050505050565b821515815260406020820152600061331360408301846131a7565b949350505050565b602081526000612d6d60208301846131a7565b60408152600061334160408301856131a7565b90508260208301529392505050565b60608152600061336360608301866131a7565b6020830194909452506001600160a01b0391909116604090910152919050565b604051601f8201601f1916810167ffffffffffffffff811182821017156133ac576133ac61347a565b604052919050565b600067ffffffffffffffff8211156133ce576133ce61347a565b5060051b60200190565b600082198211156133eb576133eb61344e565b500190565b6000828210156134025761340261344e565b500390565b60005b8381101561342257818101518382015260200161340a565b838111156131a15750506000910152565b60006000198214156134475761344761344e565b5060010190565b634e487b7160e01b600052601160045260246000fd5b634e487b7160e01b600052603260045260246000fd5b634e487b7160e01b600052604160045260246000fd5b6001600160a01b03811681146125bc57600080fdfe506563756e69614c6f636b3a3a726563686172676557697468416464726573734f776e6572204e46547320747261736e666665726564206261636b20746f206f776e6572506563756e69614c6f636b3a3a77697468647261775369676e61747572653a20a26469706673582212200447b7d839c5204b7b0351f3f553c85ba1e94301d3a14e1d12e69b1165160ceb64736f6c63430008070033608060405234801561001057600080fd5b50611296806100206000396000f3fe608060405234801561001057600080fd5b506004361061002b5760003560e01c806311479fea14610030575b600080fd5b61004361003e36600461103a565b610057565b604051901515815260200160405180910390f35b6000610061610ea8565b60408051808201825287518152602080890151818301529083528151608080820184528851518285019081528951840151606080850191909152908352845180860186528a8501805151825251850151818601528385015285840192909252835180850185528851815288840151818501528585015283516003808252918101909452600093929091908301908036833701905050905060005b600381101561014a5784816003811061011657610116611234565b602002015182828151811061012d5761012d611234565b602090810291909101015280610142816111e1565b9150506100fb565b506101558183610173565b6101645760019250505061016b565b6000925050505b949350505050565b60007f30644e72e131a029b85045b68181585d2833e84879b9709143e1f593f00000018161019f61036a565b9050806080015151855160016101b59190611193565b146101fc5760405162461bcd60e51b81526020600482015260126024820152711d995c9a599a595c8b5898590b5a5b9c1d5d60721b60448201526064015b60405180910390fd5b604080518082019091526000808252602082018190525b86518110156102ed578387828151811061022f5761022f611234565b6020026020010151106102845760405162461bcd60e51b815260206004820152601f60248201527f76657269666965722d6774652d736e61726b2d7363616c61722d6669656c640060448201526064016101f3565b6102d9826102d4856080015184600161029d9190611193565b815181106102ad576102ad611234565b60200260200101518a85815181106102c7576102c7611234565b60200260200101516107f3565b61088f565b9150806102e5816111e1565b915050610213565b5061031681836080015160008151811061030957610309611234565b602002602001015161088f565b905061034c6103288660000151610927565b8660200151846000015185602001518587604001518b6040015189606001516109c6565b61035c5760019350505050610364565b600093505050505b92915050565b610372610ef9565b6040805180820182527f0f6a9292f44e0c5fd56723e16aa2d2886553bbe43de550a50fd25364395a831581527f2f9ce71de54ad21b602c1a43eab00d11cc53a2b8752d9b0b2df634d87464fa6b6020808301919091529083528151608080820184527f15fdcc142479f55492db36142b172560437a29b9e945db4319241f55ee4e343e8285019081527f2fa5aa0478303739373560a2e2424bd3f4dfb91dc35deacb52d00989300991cb606080850191909152908352845180860186527f02d6bf0a28b48a63787457a69b8313c614a6568b4cce18395154fe8f42d4daed81527f16207b64d553bbc5277313c8e8a14977326d34efc78531ee60b8bcaa8bae3465818601528385015285840192909252835180820185527f198e9393920d483a7260bfb731fb5d25f1aa493335a9e71297e485b7aef312c28186019081527f1800deef121f1e76426a00665e5c4479674322d4f75edadd46debd5cd992f6ed828501528152845180860186527f090689d0585ff075ec9e99ad690c3395bc4b313370b38ef355acdadcd122975b81527f12c85ea5db8c6deb4aab71808dcb408fe3d1e7690c43d37b4ce6cc0166fa7daa818601528185015285850152835190810184527f2eeefc3a354cd850b6947daa861a817ca411369f3790270a1976a5e7008426e98185019081527f1c16b6153e3e5304be126405deba45a7eece2309f53229f4bdf7b7b9c03164c8828401528152835180850185527f2007c6fff3e2cdf709d69127dc92744614627d041e211a86d0466287d554029081527f1b548b0ee40dec780ca8a21b8f11bc25601fe0a63899587ad7993a943b7833318185015281840152908401528151600480825260a08201909352919082015b60408051808201909152600080825260208201528152602001906001900390816105ed57505060808201908152604080518082019091527f2e32c9e22bed833171a84a4218fac8dc39b8f4363ce6bf3eae71c3e85b17e5ea81527f0a6ea17084eec888c6c73e2f9c5e9c6487a5d1f61fbf72b0913b0c5961f7d76d60208201529051805160009061068057610680611234565b602002602001018190525060405180604001604052807f1c8de427f4226ccfdfac17d880785fddd6947df69b744cd48a675d03e32f852d81526020017f07a3b41ed49144e349ac2cd1e105a757be1d51c1a2af575324d78d62071de44281525081608001516001815181106106f7576106f7611234565b602002602001018190525060405180604001604052807f1c649d0adb3e095b29de0cd602d8567fffcb5a053c5a05454b1946bba81a70b781526020017f19621312f8fe56f3d691d36528d987a434bdb560df990dc13838adf5836b28c2815250816080015160028151811061076e5761076e611234565b602002602001018190525060405180604001604052807f2db18aac3e08a0a8dbd8dde7c02657a046d0bbc81374e0a03aec0ced801ed32081526020017f1fd2bc2305899ced683425bb06a702b6c07327b68cd0a22701754c04bb050a1381525081608001516003815181106107e5576107e5611234565b602002602001018190525090565b604080518082019091526000808252602082015261080f610f4a565b835181526020808501519082015260408101839052600060608360808460076107d05a03fa905080801561084257610844565bfe5b50806108875760405162461bcd60e51b81526020600482015260126024820152711c185a5c9a5b99cb5b5d5b0b59985a5b195960721b60448201526064016101f3565b505092915050565b60408051808201909152600080825260208201526108ab610f68565b8351815260208085015181830152835160408301528301516060808301919091526000908360c08460066107d05a03fa90508080156108425750806108875760405162461bcd60e51b81526020600482015260126024820152711c185a5c9a5b99cb5859190b59985a5b195960721b60448201526064016101f3565b604080518082019091526000808252602082015281517f30644e72e131a029b85045b68181585d97816a916871ca8d3c208c16d87cfd479015801561096e57506020830151155b1561098e5750506040805180820190915260008082526020820152919050565b6040518060400160405280846000015181526020018285602001516109b391906111fc565b6109bd90846111ca565b90529392505050565b60408051600480825260a08201909252600091829190816020015b60408051808201909152600080825260208201528152602001906001900390816109e157505060408051600480825260a0820190925291925060009190602082015b610a2b610f86565b815260200190600190039081610a235790505090508a82600081518110610a5457610a54611234565b60200260200101819052508882600181518110610a7357610a73611234565b60200260200101819052508682600281518110610a9257610a92611234565b60200260200101819052508482600381518110610ab157610ab1611234565b60200260200101819052508981600081518110610ad057610ad0611234565b60200260200101819052508781600181518110610aef57610aef611234565b60200260200101819052508581600281518110610b0e57610b0e611234565b60200260200101819052508381600381518110610b2d57610b2d611234565b6020026020010181905250610b428282610b51565b9b9a5050505050505050505050565b60008151835114610b9d5760405162461bcd60e51b81526020600482015260166024820152751c185a5c9a5b99cb5b195b99dd1a1ccb59985a5b195960521b60448201526064016101f3565b82516000610bac8260066111ab565b905060008167ffffffffffffffff811115610bc957610bc961124a565b604051908082528060200260200182016040528015610bf2578160200160208202803683370190505b50905060005b83811015610e2d57868181518110610c1257610c12611234565b60200260200101516000015182826006610c2c91906111ab565b610c37906000611193565b81518110610c4757610c47611234565b602002602001018181525050868181518110610c6557610c65611234565b60200260200101516020015182826006610c7f91906111ab565b610c8a906001611193565b81518110610c9a57610c9a611234565b602002602001018181525050858181518110610cb857610cb8611234565b6020908102919091010151515182610cd18360066111ab565b610cdc906002611193565b81518110610cec57610cec611234565b602002602001018181525050858181518110610d0a57610d0a611234565b60209081029190910181015151015182610d258360066111ab565b610d30906003611193565b81518110610d4057610d40611234565b602002602001018181525050858181518110610d5e57610d5e611234565b602002602001015160200151600060028110610d7c57610d7c611234565b602002015182610d8d8360066111ab565b610d98906004611193565b81518110610da857610da8611234565b602002602001018181525050858181518110610dc657610dc6611234565b602002602001015160200151600160028110610de457610de4611234565b602002015182610df58360066111ab565b610e00906005611193565b81518110610e1057610e10611234565b602090810291909101015280610e25816111e1565b915050610bf8565b50610e36610fa6565b6000602082602086026020860160086107d05a03fa9050808015610842575080610e9a5760405162461bcd60e51b81526020600482015260156024820152741c185a5c9a5b99cb5bdc18dbd9194b59985a5b1959605a1b60448201526064016101f3565b505115159695505050505050565b6040805160a081019091526000606082018181526080830191909152815260208101610ed2610f86565b8152602001610ef4604051806040016040528060008152602001600081525090565b905290565b6040805160e08101909152600060a0820181815260c0830191909152815260208101610f23610f86565b8152602001610f30610f86565b8152602001610f3d610f86565b8152602001606081525090565b60405180606001604052806003906020820280368337509192915050565b60405180608001604052806004906020820280368337509192915050565b6040518060400160405280610f99610fc4565b8152602001610ef4610fc4565b60405180602001604052806001906020820280368337509192915050565b60405180604001604052806002906020820280368337509192915050565b600082601f830112610ff357600080fd5b610ffb61112b565b80838560408601111561100d57600080fd5b60005b600281101561102f578135845260209384019390910190600101611010565b509095945050505050565b60008060008061016080868803121561105257600080fd5b61105c8787610fe2565b9450604087605f88011261106f57600080fd5b61107761112b565b8082890160c08a018b81111561108c57600080fd5b60005b60028110156110b6576110a28d84610fe2565b85526020909401939185019160010161108f565b508298506110c48c82610fe2565b975050505050508661011f8701126110db57600080fd5b6110e3611162565b80610100880189848a0111156110f857600080fd5b600093505b600384101561111d578035835260019390930192602092830192016110fd565b509598949750929550505050565b6040805190810167ffffffffffffffff8111828210171561115c57634e487b7160e01b600052604160045260246000fd5b60405290565b6040516060810167ffffffffffffffff8111828210171561115c57634e487b7160e01b600052604160045260246000fd5b600082198211156111a6576111a661121e565b500190565b60008160001904831182151516156111c5576111c561121e565b500290565b6000828210156111dc576111dc61121e565b500390565b60006000198214156111f5576111f561121e565b5060010190565b60008261121957634e487b7160e01b600052601260045260246000fd5b500690565b634e487b7160e01b600052601160045260246000fd5b634e487b7160e01b600052603260045260246000fd5b634e487b7160e01b600052604160045260246000fdfea2646970667358221220e0bd9ed3edb9a70b0d43292cff3a8dc9a0f4da12cb43ffbe58c2808b52c4613d64736f6c6343000807003360806040523480156200001157600080fd5b50604051806040016040528060048152602001632432b4b960e11b815250604051806040016040528060048152602001632422a4a960e11b815250816000908051906020019062000064929190620000f3565b5080516200007a906001906020840190620000f3565b50505062000097620000916200009d60201b60201c565b620000a1565b620001d6565b3390565b600780546001600160a01b038381166001600160a01b0319831681179093556040519116919082907f8be0079c531659141344cd1fd0a4f28419497f9722a3daafe3b4186f6b6457e090600090a35050565b828054620001019062000199565b90600052602060002090601f01602090048101928262000125576000855562000170565b82601f106200014057805160ff191683800117855562000170565b8280016001018555821562000170579182015b828111156200017057825182559160200191906001019062000153565b506200017e92915062000182565b5090565b5b808211156200017e576000815560010162000183565b600181811c90821680620001ae57607f821691505b60208210811415620001d057634e487b7160e01b600052602260045260246000fd5b50919050565b61186e80620001e66000396000f3fe608060405234801561001057600080fd5b50600436106101165760003560e01c8063715018a6116100a2578063b88d4fde11610071578063b88d4fde14610239578063c87b56dd1461024c578063d0def5211461025f578063e985e9c514610272578063f2fde38b146102ae57600080fd5b8063715018a6146102055780638da5cb5b1461020d57806395d89b411461021e578063a22cb4651461022657600080fd5b806323b872dd116100e957806323b872dd1461019857806342842e0e146101ab57806342966c68146101be5780636352211e146101d157806370a08231146101e457600080fd5b806301ffc9a71461011b57806306fdde0314610143578063081812fc14610158578063095ea7b314610183575b600080fd5b61012e610129366004611553565b6102c1565b60405190151581526020015b60405180910390f35b61014b610313565b60405161013a919061163e565b61016b61016636600461158d565b6103a5565b6040516001600160a01b03909116815260200161013a565b610196610191366004611529565b6103cc565b005b6101966101a63660046113d3565b6104e7565b6101966101b93660046113d3565b610518565b6101966101cc36600461158d565b610533565b61016b6101df36600461158d565b61053f565b6101f76101f2366004611385565b61059f565b60405190815260200161013a565b610196610625565b6007546001600160a01b031661016b565b61014b610639565b61019661023436600461148b565b610648565b61019661024736600461140f565b610657565b61014b61025a36600461158d565b61068f565b6101f761026d3660046114c7565b6107a0565b61012e6102803660046113a0565b6001600160a01b03918216600090815260056020908152604080832093909416825291909152205460ff1690565b6101966102bc366004611385565b6107e0565b60006001600160e01b031982166380ac58cd60e01b14806102f257506001600160e01b03198216635b5e139f60e01b145b8061030d57506301ffc9a760e01b6001600160e01b03198316145b92915050565b60606000805461032290611760565b80601f016020809104026020016040519081016040528092919081815260200182805461034e90611760565b801561039b5780601f106103705761010080835404028352916020019161039b565b820191906000526020600020905b81548152906001019060200180831161037e57829003601f168201915b5050505050905090565b60006103b082610856565b506000908152600460205260409020546001600160a01b031690565b60006103d78261053f565b9050806001600160a01b0316836001600160a01b0316141561044a5760405162461bcd60e51b815260206004820152602160248201527f4552433732313a20617070726f76616c20746f2063757272656e74206f776e656044820152603960f91b60648201526084015b60405180910390fd5b336001600160a01b038216148061046657506104668133610280565b6104d85760405162461bcd60e51b815260206004820152603e60248201527f4552433732313a20617070726f76652063616c6c6572206973206e6f7420746f60448201527f6b656e206f776e6572206e6f7220617070726f76656420666f7220616c6c00006064820152608401610441565b6104e283836108b5565b505050565b6104f13382610923565b61050d5760405162461bcd60e51b8152600401610441906116a3565b6104e28383836109a1565b6104e283838360405180602001604052806000815250610657565b61053c81610b3d565b50565b6000818152600260205260408120546001600160a01b03168061030d5760405162461bcd60e51b8152602060048201526018602482015277115490cdcc8c4e881a5b9d985b1a59081d1bdad95b88125160421b6044820152606401610441565b60006001600160a01b0382166106095760405162461bcd60e51b815260206004820152602960248201527f4552433732313a2061646472657373207a65726f206973206e6f7420612076616044820152683634b21037bbb732b960b91b6064820152608401610441565b506001600160a01b031660009081526003602052604090205490565b61062d610b7d565b6106376000610bd7565b565b60606001805461032290611760565b610653338383610c29565b5050565b6106613383610923565b61067d5760405162461bcd60e51b8152600401610441906116a3565b61068984848484610cf8565b50505050565b606061069a82610856565b600082815260066020526040812080546106b390611760565b80601f01602080910402602001604051908101604052809291908181526020018280546106df90611760565b801561072c5780601f106107015761010080835404028352916020019161072c565b820191906000526020600020905b81548152906001019060200180831161070f57829003601f168201915b50505050509050600061074a60408051602081019091526000815290565b905080516000141561075d575092915050565b81511561078f5780826040516020016107779291906115d2565b60405160208183030381529060405292505050919050565b61079884610d2b565b949350505050565b60006107aa610b7d565b60006107b560085490565b90506107c18482610d9e565b6107cb8184610ee0565b6107d9600880546001019055565b9392505050565b6107e8610b7d565b6001600160a01b03811661084d5760405162461bcd60e51b815260206004820152602660248201527f4f776e61626c653a206e6577206f776e657220697320746865207a65726f206160448201526564647265737360d01b6064820152608401610441565b61053c81610bd7565b6000818152600260205260409020546001600160a01b031661053c5760405162461bcd60e51b8152602060048201526018602482015277115490cdcc8c4e881a5b9d985b1a59081d1bdad95b88125160421b6044820152606401610441565b600081815260046020526040902080546001600160a01b0319166001600160a01b03841690811790915581906108ea8261053f565b6001600160a01b03167f8c5be1e5ebec7d5bd14f71427d1e84f3dd0314c0f7b2291e5b200ac8c7c3b92560405160405180910390a45050565b60008061092f8361053f565b9050806001600160a01b0316846001600160a01b0316148061097657506001600160a01b0380821660009081526005602090815260408083209388168352929052205460ff165b806107985750836001600160a01b031661098f846103a5565b6001600160a01b031614949350505050565b826001600160a01b03166109b48261053f565b6001600160a01b031614610a185760405162461bcd60e51b815260206004820152602560248201527f4552433732313a207472616e736665722066726f6d20696e636f72726563742060448201526437bbb732b960d91b6064820152608401610441565b6001600160a01b038216610a7a5760405162461bcd60e51b8152602060048201526024808201527f4552433732313a207472616e7366657220746f20746865207a65726f206164646044820152637265737360e01b6064820152608401610441565b610a856000826108b5565b6001600160a01b0383166000908152600360205260408120805460019290610aae90849061171d565b90915550506001600160a01b0382166000908152600360205260408120805460019290610adc9084906116f1565b909155505060008181526002602052604080822080546001600160a01b0319166001600160a01b0386811691821790925591518493918716917fddf252ad1be2c89b69c2b068fc378daa952ba7f163c4a11628f55a4df523b3ef91a4505050565b610b4681610f7a565b60008181526006602052604090208054610b5f90611760565b15905061053c57600081815260066020526040812061053c91611220565b6007546001600160a01b031633146106375760405162461bcd60e51b815260206004820181905260248201527f4f776e61626c653a2063616c6c6572206973206e6f7420746865206f776e65726044820152606401610441565b600780546001600160a01b038381166001600160a01b0319831681179093556040519116919082907f8be0079c531659141344cd1fd0a4f28419497f9722a3daafe3b4186f6b6457e090600090a35050565b816001600160a01b0316836001600160a01b03161415610c8b5760405162461bcd60e51b815260206004820152601960248201527f4552433732313a20617070726f766520746f2063616c6c6572000000000000006044820152606401610441565b6001600160a01b03838116600081815260056020908152604080832094871680845294825291829020805460ff191686151590811790915591519182527f17307eab39ab6107e8899845ad3d59bd9653f200f220920489ca2b5937696c31910160405180910390a3505050565b610d038484846109a1565b610d0f84848484611015565b6106895760405162461bcd60e51b815260040161044190611651565b6060610d3682610856565b6000610d4d60408051602081019091526000815290565b90506000815111610d6d57604051806020016040528060008152506107d9565b80610d7784611122565b604051602001610d889291906115d2565b6040516020818303038152906040529392505050565b6001600160a01b038216610df45760405162461bcd60e51b815260206004820181905260248201527f4552433732313a206d696e7420746f20746865207a65726f20616464726573736044820152606401610441565b6000818152600260205260409020546001600160a01b031615610e595760405162461bcd60e51b815260206004820152601c60248201527f4552433732313a20746f6b656e20616c7265616479206d696e746564000000006044820152606401610441565b6001600160a01b0382166000908152600360205260408120805460019290610e829084906116f1565b909155505060008181526002602052604080822080546001600160a01b0319166001600160a01b03861690811790915590518392907fddf252ad1be2c89b69c2b068fc378daa952ba7f163c4a11628f55a4df523b3ef908290a45050565b6000828152600260205260409020546001600160a01b0316610f5b5760405162461bcd60e51b815260206004820152602e60248201527f45524337323155524953746f726167653a2055524920736574206f66206e6f6e60448201526d32bc34b9ba32b73a103a37b5b2b760911b6064820152608401610441565b600082815260066020908152604090912082516104e29284019061125a565b6000610f858261053f565b9050610f926000836108b5565b6001600160a01b0381166000908152600360205260408120805460019290610fbb90849061171d565b909155505060008281526002602052604080822080546001600160a01b0319169055518391906001600160a01b038416907fddf252ad1be2c89b69c2b068fc378daa952ba7f163c4a11628f55a4df523b3ef908390a45050565b60006001600160a01b0384163b1561111757604051630a85bd0160e11b81526001600160a01b0385169063150b7a0290611059903390899088908890600401611601565b602060405180830381600087803b15801561107357600080fd5b505af19250505080156110a3575060408051601f3d908101601f191682019092526110a091810190611570565b60015b6110fd573d8080156110d1576040519150601f19603f3d011682016040523d82523d6000602084013e6110d6565b606091505b5080516110f55760405162461bcd60e51b815260040161044190611651565b805181602001fd5b6001600160e01b031916630a85bd0160e11b149050610798565b506001949350505050565b6060816111465750506040805180820190915260018152600360fc1b602082015290565b8160005b8115611170578061115a8161179b565b91506111699050600a83611709565b915061114a565b60008167ffffffffffffffff81111561118b5761118b61180c565b6040519080825280601f01601f1916602001820160405280156111b5576020820181803683370190505b5090505b8415610798576111ca60018361171d565b91506111d7600a866117b6565b6111e29060306116f1565b60f81b8183815181106111f7576111f76117f6565b60200101906001600160f81b031916908160001a905350611219600a86611709565b94506111b9565b50805461122c90611760565b6000825580601f1061123c575050565b601f01602090049060005260206000209081019061053c91906112de565b82805461126690611760565b90600052602060002090601f01602090048101928261128857600085556112ce565b82601f106112a157805160ff19168380011785556112ce565b828001600101855582156112ce579182015b828111156112ce5782518255916020019190600101906112b3565b506112da9291506112de565b5090565b5b808211156112da57600081556001016112df565b600067ffffffffffffffff8084111561130e5761130e61180c565b604051601f8501601f19908116603f011681019082821181831017156113365761133661180c565b8160405280935085815286868601111561134f57600080fd5b858560208301376000602087830101525050509392505050565b80356001600160a01b038116811461138057600080fd5b919050565b60006020828403121561139757600080fd5b6107d982611369565b600080604083850312156113b357600080fd5b6113bc83611369565b91506113ca60208401611369565b90509250929050565b6000806000606084860312156113e857600080fd5b6113f184611369565b92506113ff60208501611369565b9150604084013590509250925092565b6000806000806080858703121561142557600080fd5b61142e85611369565b935061143c60208601611369565b925060408501359150606085013567ffffffffffffffff81111561145f57600080fd5b8501601f8101871361147057600080fd5b61147f878235602084016112f3565b91505092959194509250565b6000806040838503121561149e57600080fd5b6114a783611369565b9150602083013580151581146114bc57600080fd5b809150509250929050565b600080604083850312156114da57600080fd5b6114e383611369565b9150602083013567ffffffffffffffff8111156114ff57600080fd5b8301601f8101851361151057600080fd5b61151f858235602084016112f3565b9150509250929050565b6000806040838503121561153c57600080fd5b61154583611369565b946020939093013593505050565b60006020828403121561156557600080fd5b81356107d981611822565b60006020828403121561158257600080fd5b81516107d981611822565b60006020828403121561159f57600080fd5b5035919050565b600081518084526115be816020860160208601611734565b601f01601f19169290920160200192915050565b600083516115e4818460208801611734565b8351908301906115f8818360208801611734565b01949350505050565b6001600160a01b0385811682528416602082015260408101839052608060608201819052600090611634908301846115a6565b9695505050505050565b6020815260006107d960208301846115a6565b60208082526032908201527f4552433732313a207472616e7366657220746f206e6f6e20455243373231526560408201527131b2b4bb32b91034b6b83632b6b2b73a32b960711b606082015260800190565b6020808252602e908201527f4552433732313a2063616c6c6572206973206e6f7420746f6b656e206f776e6560408201526d1c881b9bdc88185c1c1c9bdd995960921b606082015260800190565b60008219821115611704576117046117ca565b500190565b600082611718576117186117e0565b500490565b60008282101561172f5761172f6117ca565b500390565b60005b8381101561174f578181015183820152602001611737565b838111156106895750506000910152565b600181811c9082168061177457607f821691505b6020821081141561179557634e487b7160e01b600052602260045260246000fd5b50919050565b60006000198214156117af576117af6117ca565b5060010190565b6000826117c5576117c56117e0565b500690565b634e487b7160e01b600052601160045260246000fd5b634e487b7160e01b600052601260045260246000fd5b634e487b7160e01b600052603260045260246000fd5b634e487b7160e01b600052604160045260246000fd5b6001600160e01b03198116811461053c57600080fdfea2646970667358221220ec081d61bd65d239650c28564dadbbc1f9b7d2b4ce9fb7a2217cf1a8e7ab032464736f6c63430008070033",
  "linkReferences": {},
  "deployedLinkReferences": {}
}