{
  "_format": "hh-sol-artifact-1",
  "contractName": "Verifier",
  "sourceName": "contracts/verifier.sol",
  "abi": [
    {
      "inputs": [
        {
          "internalType": "uint256[2]",
          "name": "a",
          "type": "uint256[2]"
        },
        {
          "internalType": "uint256[2][2]",
          "name": "b",
          "type": "uint256[2][2]"
        },
        {
          "internalType": "uint256[2]",
          "name": "c",
          "type": "uint256[2]"
        },
        {
          "internalType": "uint256[3]",
          "name": "input",
          "type": "uint256[3]"
        }
      ],
      "name": "verifyProof",
      "outputs": [
        {
          "internalType": "bool",
          "name": "r",
          "type": "bool"
        }
      ],
      "stateMutability": "view",
      "type": "function"
    }
  ],
  "bytecode": "0x608060405234801561001057600080fd5b50611296806100206000396000f3fe608060405234801561001057600080fd5b506004361061002b5760003560e01c806311479fea14610030575b600080fd5b61004361003e36600461103a565b610057565b604051901515815260200160405180910390f35b6000610061610ea8565b60408051808201825287518152602080890151818301529083528151608080820184528851518285019081528951840151606080850191909152908352845180860186528a8501805151825251850151818601528385015285840192909252835180850185528851815288840151818501528585015283516003808252918101909452600093929091908301908036833701905050905060005b600381101561014a5784816003811061011657610116611234565b602002015182828151811061012d5761012d611234565b602090810291909101015280610142816111e1565b9150506100fb565b506101558183610173565b6101645760019250505061016b565b6000925050505b949350505050565b60007f30644e72e131a029b85045b68181585d2833e84879b9709143e1f593f00000018161019f61036a565b9050806080015151855160016101b59190611193565b146101fc5760405162461bcd60e51b81526020600482015260126024820152711d995c9a599a595c8b5898590b5a5b9c1d5d60721b60448201526064015b60405180910390fd5b604080518082019091526000808252602082018190525b86518110156102ed578387828151811061022f5761022f611234565b6020026020010151106102845760405162461bcd60e51b815260206004820152601f60248201527f76657269666965722d6774652d736e61726b2d7363616c61722d6669656c640060448201526064016101f3565b6102d9826102d4856080015184600161029d9190611193565b815181106102ad576102ad611234565b60200260200101518a85815181106102c7576102c7611234565b60200260200101516107f3565b61088f565b9150806102e5816111e1565b915050610213565b5061031681836080015160008151811061030957610309611234565b602002602001015161088f565b905061034c6103288660000151610927565b8660200151846000015185602001518587604001518b6040015189606001516109c6565b61035c5760019350505050610364565b600093505050505b92915050565b610372610ef9565b6040805180820182527f0f6a9292f44e0c5fd56723e16aa2d2886553bbe43de550a50fd25364395a831581527f2f9ce71de54ad21b602c1a43eab00d11cc53a2b8752d9b0b2df634d87464fa6b6020808301919091529083528151608080820184527f15fdcc142479f55492db36142b172560437a29b9e945db4319241f55ee4e343e8285019081527f2fa5aa0478303739373560a2e2424bd3f4dfb91dc35deacb52d00989300991cb606080850191909152908352845180860186527f02d6bf0a28b48a63787457a69b8313c614a6568b4cce18395154fe8f42d4daed81527f16207b64d553bbc5277313c8e8a14977326d34efc78531ee60b8bcaa8bae3465818601528385015285840192909252835180820185527f198e9393920d483a7260bfb731fb5d25f1aa493335a9e71297e485b7aef312c28186019081527f1800deef121f1e76426a00665e5c4479674322d4f75edadd46debd5cd992f6ed828501528152845180860186527f090689d0585ff075ec9e99ad690c3395bc4b313370b38ef355acdadcd122975b81527f12c85ea5db8c6deb4aab71808dcb408fe3d1e7690c43d37b4ce6cc0166fa7daa818601528185015285850152835190810184527f2eeefc3a354cd850b6947daa861a817ca411369f3790270a1976a5e7008426e98185019081527f1c16b6153e3e5304be126405deba45a7eece2309f53229f4bdf7b7b9c03164c8828401528152835180850185527f2007c6fff3e2cdf709d69127dc92744614627d041e211a86d0466287d554029081527f1b548b0ee40dec780ca8a21b8f11bc25601fe0a63899587ad7993a943b7833318185015281840152908401528151600480825260a08201909352919082015b60408051808201909152600080825260208201528152602001906001900390816105ed57505060808201908152604080518082019091527f2e32c9e22bed833171a84a4218fac8dc39b8f4363ce6bf3eae71c3e85b17e5ea81527f0a6ea17084eec888c6c73e2f9c5e9c6487a5d1f61fbf72b0913b0c5961f7d76d60208201529051805160009061068057610680611234565b602002602001018190525060405180604001604052807f1c8de427f4226ccfdfac17d880785fddd6947df69b744cd48a675d03e32f852d81526020017f07a3b41ed49144e349ac2cd1e105a757be1d51c1a2af575324d78d62071de44281525081608001516001815181106106f7576106f7611234565b602002602001018190525060405180604001604052807f1c649d0adb3e095b29de0cd602d8567fffcb5a053c5a05454b1946bba81a70b781526020017f19621312f8fe56f3d691d36528d987a434bdb560df990dc13838adf5836b28c2815250816080015160028151811061076e5761076e611234565b602002602001018190525060405180604001604052807f2db18aac3e08a0a8dbd8dde7c02657a046d0bbc81374e0a03aec0ced801ed32081526020017f1fd2bc2305899ced683425bb06a702b6c07327b68cd0a22701754c04bb050a1381525081608001516003815181106107e5576107e5611234565b602002602001018190525090565b604080518082019091526000808252602082015261080f610f4a565b835181526020808501519082015260408101839052600060608360808460076107d05a03fa905080801561084257610844565bfe5b50806108875760405162461bcd60e51b81526020600482015260126024820152711c185a5c9a5b99cb5b5d5b0b59985a5b195960721b60448201526064016101f3565b505092915050565b60408051808201909152600080825260208201526108ab610f68565b8351815260208085015181830152835160408301528301516060808301919091526000908360c08460066107d05a03fa90508080156108425750806108875760405162461bcd60e51b81526020600482015260126024820152711c185a5c9a5b99cb5859190b59985a5b195960721b60448201526064016101f3565b604080518082019091526000808252602082015281517f30644e72e131a029b85045b68181585d97816a916871ca8d3c208c16d87cfd479015801561096e57506020830151155b1561098e5750506040805180820190915260008082526020820152919050565b6040518060400160405280846000015181526020018285602001516109b391906111fc565b6109bd90846111ca565b90529392505050565b60408051600480825260a08201909252600091829190816020015b60408051808201909152600080825260208201528152602001906001900390816109e157505060408051600480825260a0820190925291925060009190602082015b610a2b610f86565b815260200190600190039081610a235790505090508a82600081518110610a5457610a54611234565b60200260200101819052508882600181518110610a7357610a73611234565b60200260200101819052508682600281518110610a9257610a92611234565b60200260200101819052508482600381518110610ab157610ab1611234565b60200260200101819052508981600081518110610ad057610ad0611234565b60200260200101819052508781600181518110610aef57610aef611234565b60200260200101819052508581600281518110610b0e57610b0e611234565b60200260200101819052508381600381518110610b2d57610b2d611234565b6020026020010181905250610b428282610b51565b9b9a5050505050505050505050565b60008151835114610b9d5760405162461bcd60e51b81526020600482015260166024820152751c185a5c9a5b99cb5b195b99dd1a1ccb59985a5b195960521b60448201526064016101f3565b82516000610bac8260066111ab565b905060008167ffffffffffffffff811115610bc957610bc961124a565b604051908082528060200260200182016040528015610bf2578160200160208202803683370190505b50905060005b83811015610e2d57868181518110610c1257610c12611234565b60200260200101516000015182826006610c2c91906111ab565b610c37906000611193565b81518110610c4757610c47611234565b602002602001018181525050868181518110610c6557610c65611234565b60200260200101516020015182826006610c7f91906111ab565b610c8a906001611193565b81518110610c9a57610c9a611234565b602002602001018181525050858181518110610cb857610cb8611234565b6020908102919091010151515182610cd18360066111ab565b610cdc906002611193565b81518110610cec57610cec611234565b602002602001018181525050858181518110610d0a57610d0a611234565b60209081029190910181015151015182610d258360066111ab565b610d30906003611193565b81518110610d4057610d40611234565b602002602001018181525050858181518110610d5e57610d5e611234565b602002602001015160200151600060028110610d7c57610d7c611234565b602002015182610d8d8360066111ab565b610d98906004611193565b81518110610da857610da8611234565b602002602001018181525050858181518110610dc657610dc6611234565b602002602001015160200151600160028110610de457610de4611234565b602002015182610df58360066111ab565b610e00906005611193565b81518110610e1057610e10611234565b602090810291909101015280610e25816111e1565b915050610bf8565b50610e36610fa6565b6000602082602086026020860160086107d05a03fa9050808015610842575080610e9a5760405162461bcd60e51b81526020600482015260156024820152741c185a5c9a5b99cb5bdc18dbd9194b59985a5b1959605a1b60448201526064016101f3565b505115159695505050505050565b6040805160a081019091526000606082018181526080830191909152815260208101610ed2610f86565b8152602001610ef4604051806040016040528060008152602001600081525090565b905290565b6040805160e08101909152600060a0820181815260c0830191909152815260208101610f23610f86565b8152602001610f30610f86565b8152602001610f3d610f86565b8152602001606081525090565b60405180606001604052806003906020820280368337509192915050565b60405180608001604052806004906020820280368337509192915050565b6040518060400160405280610f99610fc4565b8152602001610ef4610fc4565b60405180602001604052806001906020820280368337509192915050565b60405180604001604052806002906020820280368337509192915050565b600082601f830112610ff357600080fd5b610ffb61112b565b80838560408601111561100d57600080fd5b60005b600281101561102f578135845260209384019390910190600101611010565b509095945050505050565b60008060008061016080868803121561105257600080fd5b61105c8787610fe2565b9450604087605f88011261106f57600080fd5b61107761112b565b8082890160c08a018b81111561108c57600080fd5b60005b60028110156110b6576110a28d84610fe2565b85526020909401939185019160010161108f565b508298506110c48c82610fe2565b975050505050508661011f8701126110db57600080fd5b6110e3611162565b80610100880189848a0111156110f857600080fd5b600093505b600384101561111d578035835260019390930192602092830192016110fd565b509598949750929550505050565b6040805190810167ffffffffffffffff8111828210171561115c57634e487b7160e01b600052604160045260246000fd5b60405290565b6040516060810167ffffffffffffffff8111828210171561115c57634e487b7160e01b600052604160045260246000fd5b600082198211156111a6576111a661121e565b500190565b60008160001904831182151516156111c5576111c561121e565b500290565b6000828210156111dc576111dc61121e565b500390565b60006000198214156111f5576111f561121e565b5060010190565b60008261121957634e487b7160e01b600052601260045260246000fd5b500690565b634e487b7160e01b600052601160045260246000fd5b634e487b7160e01b600052603260045260246000fd5b634e487b7160e01b600052604160045260246000fdfea2646970667358221220e0bd9ed3edb9a70b0d43292cff3a8dc9a0f4da12cb43ffbe58c2808b52c4613d64736f6c63430008070033",
  "linkReferences": {},
  "deployedLinkReferences": {}
}