{
  "_format": "hh-sol-artifact-1",
  "contractName": "OwnerNFT",
  "sourceName": "contracts/mock/MockERC721.sol",
  "abi": [
    {
      "inputs": [],
      "stateMutability": "nonpayable",
      "type": "constructor"
    },
    {
      "anonymous": false,
      "inputs": [
        {
          "indexed": true,
          "internalType": "address",
          "name": "owner",
          "type": "address"
        },
        {
          "indexed": true,
          "internalType": "address",
          "name": "approved",
          "type": "address"
        },
        {
          "indexed": true,
          "internalType": "uint256",
          "name": "tokenId",
          "type": "uint256"
        }
      ],
      "name": "Approval",
      "type": "event"
    },
    {
      "anonymous": false,
      "inputs": [
        {
          "indexed": true,
          "internalType": "address",
          "name": "owner",
          "type": "address"
        },
        {
          "indexed": true,
          "internalType": "address",
          "name": "operator",
          "type": "address"
        },
        {
          "indexed": false,
          "internalType": "bool",
          "name": "approved",
          "type": "bool"
        }
      ],
      "name": "ApprovalForAll",
      "type": "event"
    },
    {
      "anonymous": false,
      "inputs": [
        {
          "indexed": true,
          "internalType": "address",
          "name": "previousOwner",
          "type": "address"
        },
        {
          "indexed": true,
          "internalType": "address",
          "name": "newOwner",
          "type": "address"
        }
      ],
      "name": "OwnershipTransferred",
      "type": "event"
    },
    {
      "anonymous": false,
      "inputs": [
        {
          "indexed": true,
          "internalType": "address",
          "name": "from",
          "type": "address"
        },
        {
          "indexed": true,
          "internalType": "address",
          "name": "to",
          "type": "address"
        },
        {
          "indexed": true,
          "internalType": "uint256",
          "name": "tokenId",
          "type": "uint256"
        }
      ],
      "name": "Transfer",
      "type": "event"
    },
    {
      "inputs": [
        {
          "internalType": "address",
          "name": "to",
          "type": "address"
        },
        {
          "internalType": "uint256",
          "name": "tokenId",
          "type": "uint256"
        }
      ],
      "name": "approve",
      "outputs": [],
      "stateMutability": "nonpayable",
      "type": "function"
    },
    {
      "inputs": [
        {
          "internalType": "address",
          "name": "owner",
          "type": "address"
        }
      ],
      "name": "balanceOf",
      "outputs": [
        {
          "internalType": "uint256",
          "name": "",
          "type": "uint256"
        }
      ],
      "stateMutability": "view",
      "type": "function"
    },
    {
      "inputs": [
        {
          "internalType": "uint256",
          "name": "tokenId",
          "type": "uint256"
        }
      ],
      "name": "burn",
      "outputs": [],
      "stateMutability": "nonpayable",
      "type": "function"
    },
    {
      "inputs": [
        {
          "internalType": "uint256",
          "name": "tokenId",
          "type": "uint256"
        }
      ],
      "name": "getApproved",
      "outputs": [
        {
          "internalType": "address",
          "name": "",
          "type": "address"
        }
      ],
      "stateMutability": "view",
      "type": "function"
    },
    {
      "inputs": [
        {
          "internalType": "address",
          "name": "owner",
          "type": "address"
        },
        {
          "internalType": "address",
          "name": "operator",
          "type": "address"
        }
      ],
      "name": "isApprovedForAll",
      "outputs": [
        {
          "internalType": "bool",
          "name": "",
          "type": "bool"
        }
      ],
      "stateMutability": "view",
      "type": "function"
    },
    {
      "inputs": [
        {
          "internalType": "address",
          "name": "user",
          "type": "address"
        },
        {
          "internalType": "string",
          "name": "_tokenURI",
          "type": "string"
        }
      ],
      "name": "mint",
      "outputs": [
        {
          "internalType": "uint256",
          "name": "",
          "type": "uint256"
        }
      ],
      "stateMutability": "nonpayable",
      "type": "function"
    },
    {
      "inputs": [],
      "name": "name",
      "outputs": [
        {
          "internalType": "string",
          "name": "",
          "type": "string"
        }
      ],
      "stateMutability": "view",
      "type": "function"
    },
    {
      "inputs": [],
      "name": "owner",
      "outputs": [
        {
          "internalType": "address",
          "name": "",
          "type": "address"
        }
      ],
      "stateMutability": "view",
      "type": "function"
    },
    {
      "inputs": [
        {
          "internalType": "uint256",
          "name": "tokenId",
          "type": "uint256"
        }
      ],
      "name": "ownerOf",
      "outputs": [
        {
          "internalType": "address",
          "name": "",
          "type": "address"
        }
      ],
      "stateMutability": "view",
      "type": "function"
    },
    {
      "inputs": [],
      "name": "renounceOwnership",
      "outputs": [],
      "stateMutability": "nonpayable",
      "type": "function"
    },
    {
      "inputs": [
        {
          "internalType": "address",
          "name": "from",
          "type": "address"
        },
        {
          "internalType": "address",
          "name": "to",
          "type": "address"
        },
        {
          "internalType": "uint256",
          "name": "tokenId",
          "type": "uint256"
        }
      ],
      "name": "safeTransferFrom",
      "outputs": [],
      "stateMutability": "nonpayable",
      "type": "function"
    },
    {
      "inputs": [
        {
          "internalType": "address",
          "name": "from",
          "type": "address"
        },
        {
          "internalType": "address",
          "name": "to",
          "type": "address"
        },
        {
          "internalType": "uint256",
          "name": "tokenId",
          "type": "uint256"
        },
        {
          "internalType": "bytes",
          "name": "data",
          "type": "bytes"
        }
      ],
      "name": "safeTransferFrom",
      "outputs": [],
      "stateMutability": "nonpayable",
      "type": "function"
    },
    {
      "inputs": [
        {
          "internalType": "address",
          "name": "operator",
          "type": "address"
        },
        {
          "internalType": "bool",
          "name": "approved",
          "type": "bool"
        }
      ],
      "name": "setApprovalForAll",
      "outputs": [],
      "stateMutability": "nonpayable",
      "type": "function"
    },
    {
      "inputs": [
        {
          "internalType": "bytes4",
          "name": "interfaceId",
          "type": "bytes4"
        }
      ],
      "name": "supportsInterface",
      "outputs": [
        {
          "internalType": "bool",
          "name": "",
          "type": "bool"
        }
      ],
      "stateMutability": "view",
      "type": "function"
    },
    {
      "inputs": [],
      "name": "symbol",
      "outputs": [
        {
          "internalType": "string",
          "name": "",
          "type": "string"
        }
      ],
      "stateMutability": "view",
      "type": "function"
    },
    {
      "inputs": [
        {
          "internalType": "uint256",
          "name": "tokenId",
          "type": "uint256"
        }
      ],
      "name": "tokenURI",
      "outputs": [
        {
          "internalType": "string",
          "name": "",
          "type": "string"
        }
      ],
      "stateMutability": "view",
      "type": "function"
    },
    {
      "inputs": [
        {
          "internalType": "address",
          "name": "from",
          "type": "address"
        },
        {
          "internalType": "address",
          "name": "to",
          "type": "address"
        },
        {
          "internalType": "uint256",
          "name": "tokenId",
          "type": "uint256"
        }
      ],
      "name": "transferFrom",
      "outputs": [],
      "stateMutability": "nonpayable",
      "type": "function"
    },
    {
      "inputs": [
        {
          "internalType": "address",
          "name": "newOwner",
          "type": "address"
        }
      ],
      "name": "transferOwnership",
      "outputs": [],
      "stateMutability": "nonpayable",
      "type": "function"
    }
  ],
  "bytecode": "0x60806040523480156200001157600080fd5b50604080518082018252600a8152694f776e6572204e66747360b01b60208083019182528351808501909452600484526313d3919560e21b9084015281519192916200006091600091620000ef565b50805162000076906001906020840190620000ef565b505050620000936200008d6200009960201b60201c565b6200009d565b620001d2565b3390565b600780546001600160a01b038381166001600160a01b0319831681179093556040519116919082907f8be0079c531659141344cd1fd0a4f28419497f9722a3daafe3b4186f6b6457e090600090a35050565b828054620000fd9062000195565b90600052602060002090601f0160209004810192826200012157600085556200016c565b82601f106200013c57805160ff19168380011785556200016c565b828001600101855582156200016c579182015b828111156200016c5782518255916020019190600101906200014f565b506200017a9291506200017e565b5090565b5b808211156200017a57600081556001016200017f565b600181811c90821680620001aa57607f821691505b60208210811415620001cc57634e487b7160e01b600052602260045260246000fd5b50919050565b61186580620001e26000396000f3fe608060405234801561001057600080fd5b50600436106101165760003560e01c8063715018a6116100a2578063b88d4fde11610071578063b88d4fde14610239578063c87b56dd1461024c578063d0def5211461025f578063e985e9c514610272578063f2fde38b146102ae57600080fd5b8063715018a6146102055780638da5cb5b1461020d57806395d89b411461021e578063a22cb4651461022657600080fd5b806323b872dd116100e957806323b872dd1461019857806342842e0e146101ab57806342966c68146101be5780636352211e146101d157806370a08231146101e457600080fd5b806301ffc9a71461011b57806306fdde0314610143578063081812fc14610158578063095ea7b314610183575b600080fd5b61012e61012936600461154a565b6102c1565b60405190151581526020015b60405180910390f35b61014b610313565b60405161013a9190611635565b61016b610166366004611584565b6103a5565b6040516001600160a01b03909116815260200161013a565b610196610191366004611520565b6103cc565b005b6101966101a63660046113ca565b6104e7565b6101966101b93660046113ca565b610518565b6101966101cc366004611584565b610533565b61016b6101df366004611584565b61053f565b6101f76101f236600461137c565b61059f565b60405190815260200161013a565b610196610625565b6007546001600160a01b031661016b565b61014b610639565b610196610234366004611482565b610648565b610196610247366004611406565b610657565b61014b61025a366004611584565b61068f565b6101f761026d3660046114be565b6107a0565b61012e610280366004611397565b6001600160a01b03918216600090815260056020908152604080832093909416825291909152205460ff1690565b6101966102bc36600461137c565b6107d7565b60006001600160e01b031982166380ac58cd60e01b14806102f257506001600160e01b03198216635b5e139f60e01b145b8061030d57506301ffc9a760e01b6001600160e01b03198316145b92915050565b60606000805461032290611757565b80601f016020809104026020016040519081016040528092919081815260200182805461034e90611757565b801561039b5780601f106103705761010080835404028352916020019161039b565b820191906000526020600020905b81548152906001019060200180831161037e57829003601f168201915b5050505050905090565b60006103b08261084d565b506000908152600460205260409020546001600160a01b031690565b60006103d78261053f565b9050806001600160a01b0316836001600160a01b0316141561044a5760405162461bcd60e51b815260206004820152602160248201527f4552433732313a20617070726f76616c20746f2063757272656e74206f776e656044820152603960f91b60648201526084015b60405180910390fd5b336001600160a01b038216148061046657506104668133610280565b6104d85760405162461bcd60e51b815260206004820152603e60248201527f4552433732313a20617070726f76652063616c6c6572206973206e6f7420746f60448201527f6b656e206f776e6572206e6f7220617070726f76656420666f7220616c6c00006064820152608401610441565b6104e283836108ac565b505050565b6104f1338261091a565b61050d5760405162461bcd60e51b81526004016104419061169a565b6104e2838383610998565b6104e283838360405180602001604052806000815250610657565b61053c81610b34565b50565b6000818152600260205260408120546001600160a01b03168061030d5760405162461bcd60e51b8152602060048201526018602482015277115490cdcc8c4e881a5b9d985b1a59081d1bdad95b88125160421b6044820152606401610441565b60006001600160a01b0382166106095760405162461bcd60e51b815260206004820152602960248201527f4552433732313a2061646472657373207a65726f206973206e6f7420612076616044820152683634b21037bbb732b960b91b6064820152608401610441565b506001600160a01b031660009081526003602052604090205490565b61062d610b74565b6106376000610bce565b565b60606001805461032290611757565b610653338383610c20565b5050565b610661338361091a565b61067d5760405162461bcd60e51b81526004016104419061169a565b61068984848484610cef565b50505050565b606061069a8261084d565b600082815260066020526040812080546106b390611757565b80601f01602080910402602001604051908101604052809291908181526020018280546106df90611757565b801561072c5780601f106107015761010080835404028352916020019161072c565b820191906000526020600020905b81548152906001019060200180831161070f57829003601f168201915b50505050509050600061074a60408051602081019091526000815290565b905080516000141561075d575092915050565b81511561078f5780826040516020016107779291906115c9565b60405160208183030381529060405292505050919050565b61079884610d22565b949350505050565b6000806107ac60085490565b90506107b88482610d95565b6107c28184610ed7565b6107d0600880546001019055565b9392505050565b6107df610b74565b6001600160a01b0381166108445760405162461bcd60e51b815260206004820152602660248201527f4f776e61626c653a206e6577206f776e657220697320746865207a65726f206160448201526564647265737360d01b6064820152608401610441565b61053c81610bce565b6000818152600260205260409020546001600160a01b031661053c5760405162461bcd60e51b8152602060048201526018602482015277115490cdcc8c4e881a5b9d985b1a59081d1bdad95b88125160421b6044820152606401610441565b600081815260046020526040902080546001600160a01b0319166001600160a01b03841690811790915581906108e18261053f565b6001600160a01b03167f8c5be1e5ebec7d5bd14f71427d1e84f3dd0314c0f7b2291e5b200ac8c7c3b92560405160405180910390a45050565b6000806109268361053f565b9050806001600160a01b0316846001600160a01b0316148061096d57506001600160a01b0380821660009081526005602090815260408083209388168352929052205460ff165b806107985750836001600160a01b0316610986846103a5565b6001600160a01b031614949350505050565b826001600160a01b03166109ab8261053f565b6001600160a01b031614610a0f5760405162461bcd60e51b815260206004820152602560248201527f4552433732313a207472616e736665722066726f6d20696e636f72726563742060448201526437bbb732b960d91b6064820152608401610441565b6001600160a01b038216610a715760405162461bcd60e51b8152602060048201526024808201527f4552433732313a207472616e7366657220746f20746865207a65726f206164646044820152637265737360e01b6064820152608401610441565b610a7c6000826108ac565b6001600160a01b0383166000908152600360205260408120805460019290610aa5908490611714565b90915550506001600160a01b0382166000908152600360205260408120805460019290610ad39084906116e8565b909155505060008181526002602052604080822080546001600160a01b0319166001600160a01b0386811691821790925591518493918716917fddf252ad1be2c89b69c2b068fc378daa952ba7f163c4a11628f55a4df523b3ef91a4505050565b610b3d81610f71565b60008181526006602052604090208054610b5690611757565b15905061053c57600081815260066020526040812061053c91611217565b6007546001600160a01b031633146106375760405162461bcd60e51b815260206004820181905260248201527f4f776e61626c653a2063616c6c6572206973206e6f7420746865206f776e65726044820152606401610441565b600780546001600160a01b038381166001600160a01b0319831681179093556040519116919082907f8be0079c531659141344cd1fd0a4f28419497f9722a3daafe3b4186f6b6457e090600090a35050565b816001600160a01b0316836001600160a01b03161415610c825760405162461bcd60e51b815260206004820152601960248201527f4552433732313a20617070726f766520746f2063616c6c6572000000000000006044820152606401610441565b6001600160a01b03838116600081815260056020908152604080832094871680845294825291829020805460ff191686151590811790915591519182527f17307eab39ab6107e8899845ad3d59bd9653f200f220920489ca2b5937696c31910160405180910390a3505050565b610cfa848484610998565b610d068484848461100c565b6106895760405162461bcd60e51b815260040161044190611648565b6060610d2d8261084d565b6000610d4460408051602081019091526000815290565b90506000815111610d6457604051806020016040528060008152506107d0565b80610d6e84611119565b604051602001610d7f9291906115c9565b6040516020818303038152906040529392505050565b6001600160a01b038216610deb5760405162461bcd60e51b815260206004820181905260248201527f4552433732313a206d696e7420746f20746865207a65726f20616464726573736044820152606401610441565b6000818152600260205260409020546001600160a01b031615610e505760405162461bcd60e51b815260206004820152601c60248201527f4552433732313a20746f6b656e20616c7265616479206d696e746564000000006044820152606401610441565b6001600160a01b0382166000908152600360205260408120805460019290610e799084906116e8565b909155505060008181526002602052604080822080546001600160a01b0319166001600160a01b03861690811790915590518392907fddf252ad1be2c89b69c2b068fc378daa952ba7f163c4a11628f55a4df523b3ef908290a45050565b6000828152600260205260409020546001600160a01b0316610f525760405162461bcd60e51b815260206004820152602e60248201527f45524337323155524953746f726167653a2055524920736574206f66206e6f6e60448201526d32bc34b9ba32b73a103a37b5b2b760911b6064820152608401610441565b600082815260066020908152604090912082516104e292840190611251565b6000610f7c8261053f565b9050610f896000836108ac565b6001600160a01b0381166000908152600360205260408120805460019290610fb2908490611714565b909155505060008281526002602052604080822080546001600160a01b0319169055518391906001600160a01b038416907fddf252ad1be2c89b69c2b068fc378daa952ba7f163c4a11628f55a4df523b3ef908390a45050565b60006001600160a01b0384163b1561110e57604051630a85bd0160e11b81526001600160a01b0385169063150b7a02906110509033908990889088906004016115f8565b602060405180830381600087803b15801561106a57600080fd5b505af192505050801561109a575060408051601f3d908101601f1916820190925261109791810190611567565b60015b6110f4573d8080156110c8576040519150601f19603f3d011682016040523d82523d6000602084013e6110cd565b606091505b5080516110ec5760405162461bcd60e51b815260040161044190611648565b805181602001fd5b6001600160e01b031916630a85bd0160e11b149050610798565b506001949350505050565b60608161113d5750506040805180820190915260018152600360fc1b602082015290565b8160005b8115611167578061115181611792565b91506111609050600a83611700565b9150611141565b60008167ffffffffffffffff81111561118257611182611803565b6040519080825280601f01601f1916602001820160405280156111ac576020820181803683370190505b5090505b8415610798576111c1600183611714565b91506111ce600a866117ad565b6111d99060306116e8565b60f81b8183815181106111ee576111ee6117ed565b60200101906001600160f81b031916908160001a905350611210600a86611700565b94506111b0565b50805461122390611757565b6000825580601f10611233575050565b601f01602090049060005260206000209081019061053c91906112d5565b82805461125d90611757565b90600052602060002090601f01602090048101928261127f57600085556112c5565b82601f1061129857805160ff19168380011785556112c5565b828001600101855582156112c5579182015b828111156112c55782518255916020019190600101906112aa565b506112d19291506112d5565b5090565b5b808211156112d157600081556001016112d6565b600067ffffffffffffffff8084111561130557611305611803565b604051601f8501601f19908116603f0116810190828211818310171561132d5761132d611803565b8160405280935085815286868601111561134657600080fd5b858560208301376000602087830101525050509392505050565b80356001600160a01b038116811461137757600080fd5b919050565b60006020828403121561138e57600080fd5b6107d082611360565b600080604083850312156113aa57600080fd5b6113b383611360565b91506113c160208401611360565b90509250929050565b6000806000606084860312156113df57600080fd5b6113e884611360565b92506113f660208501611360565b9150604084013590509250925092565b6000806000806080858703121561141c57600080fd5b61142585611360565b935061143360208601611360565b925060408501359150606085013567ffffffffffffffff81111561145657600080fd5b8501601f8101871361146757600080fd5b611476878235602084016112ea565b91505092959194509250565b6000806040838503121561149557600080fd5b61149e83611360565b9150602083013580151581146114b357600080fd5b809150509250929050565b600080604083850312156114d157600080fd5b6114da83611360565b9150602083013567ffffffffffffffff8111156114f657600080fd5b8301601f8101851361150757600080fd5b611516858235602084016112ea565b9150509250929050565b6000806040838503121561153357600080fd5b61153c83611360565b946020939093013593505050565b60006020828403121561155c57600080fd5b81356107d081611819565b60006020828403121561157957600080fd5b81516107d081611819565b60006020828403121561159657600080fd5b5035919050565b600081518084526115b581602086016020860161172b565b601f01601f19169290920160200192915050565b600083516115db81846020880161172b565b8351908301906115ef81836020880161172b565b01949350505050565b6001600160a01b038581168252841660208201526040810183905260806060820181905260009061162b9083018461159d565b9695505050505050565b6020815260006107d0602083018461159d565b60208082526032908201527f4552433732313a207472616e7366657220746f206e6f6e20455243373231526560408201527131b2b4bb32b91034b6b83632b6b2b73a32b960711b606082015260800190565b6020808252602e908201527f4552433732313a2063616c6c6572206973206e6f7420746f6b656e206f776e6560408201526d1c881b9bdc88185c1c1c9bdd995960921b606082015260800190565b600082198211156116fb576116fb6117c1565b500190565b60008261170f5761170f6117d7565b500490565b600082821015611726576117266117c1565b500390565b60005b8381101561174657818101518382015260200161172e565b838111156106895750506000910152565b600181811c9082168061176b57607f821691505b6020821081141561178c57634e487b7160e01b600052602260045260246000fd5b50919050565b60006000198214156117a6576117a66117c1565b5060010190565b6000826117bc576117bc6117d7565b500690565b634e487b7160e01b600052601160045260246000fd5b634e487b7160e01b600052601260045260246000fd5b634e487b7160e01b600052603260045260246000fd5b634e487b7160e01b600052604160045260246000fd5b6001600160e01b03198116811461053c57600080fdfea264697066735822122005ed83293b24ac7209547f0aef6aade207148048c921731b504d5bc8125a939064736f6c63430008070033",
  "linkReferences": {},
  "deployedLinkReferences": {}
}